:100000000C94B6030C94EE030C94EE030C94EE03E4
:100010000C94EE030C94EE030C94EE030C94EE039C
:100020000C94EE030C94EE030C9419290C94EB2918
:100030000C943A230C94EE030C94EE030C94EE0310
:100040000C94EE030C94EE030C94EE030C94EE036C
:100050000C94EE030C94C2230C94EE030C94EE0368
:100060000C94EE030C94EE030C94EE030C94EE034C
:100070000C94EE030C94EE030C94EE030C94EE033C
:100080000C94EE030C94EE030C94EE030C94EE032C
:100090000C94EE030C94EE030C94EE030C94EE031C
:1000A0000C94EE030C94EE030C94EE03250C250C3B
:1000B000510C510CB20CD00CE70DE70DDB0C740D9C
:1000C000850D850D582A7F2A772B7F2A772BCB2AFF
:1000D000EE2A772B452B542B0A002530313662004F
:1000E0003A200025303258000A722F632030313216
:1000F000333435363738394142434445460A006D7A
:1001000063703233303137206465617474616368C1
:1001100065642121210A006D63703233303137204C
:1001200061747461636865642121210A0029001EDD
:10013000001F002000210022000153490023002459
:100140000025002600270038002B00340036003739
:100150000013001C002A004C0009000A00060015CC
:10016000000F002E00E10004001200080018000C2F
:10017000000000000007000B00170011001600E54A
:10018000003100330014000D000E001B002F003062
:1001900000050010001A0019001D002D00E30035B5
:1001A0000065004600E2000000000000000000E6DC
:1001B000005000520051004F0000002C002B00E0C6
:1001C000004D0002514A004B00E4004E00E3002ABB
:1001D000002800000029001E001F0020002100222E
:1001E00000010049002300240025002600270038D4
:1001F000002B0034003600370013001C002A004C8E
:100200000009000A00060015000F002E00E100049E
:10021000001200080018000C000000000007000B8E
:1002200000170011001600E5003100330014000D26
:10023000000E001B002F003000050010001A0019EE
:10024000001D002D00E000350065004600E20000C2
:1002500000000000000000E6005000520051004F76
:100260000000002C002B00E3004D0002514A004B1F
:1002700000E3004E00E4002A0028000000005C3A81
:10028000003B003C003D003E003F0040004100427A
:100290000043004400450056000100010001000138
:1002A000000100010001000100010001005F006089
:1002B0000061002E020100010001000100010001A7
:1002C0000000000000010001005C005D005E0055C0
:1002D0000001000100010001000100010001000116
:1002E000000100010059005A005B005400010001A8
:1002F00000010001000100000000000000000001FA
:1003000000010062006300670000000100010001BD
:1003100000010001000100010001000100010001D5
:10032000000100000044454255473A20646973616A
:10033000626C65642E0A0044454255473A20656E5A
:1003400061626C65642E0A0000000000000000007D
:100350002A2B280000000000000000000000000020
:1003600000000029000000002C1E3420212224342B
:100370002627252E362D3738271E1F2021222324FD
:1003800025263333362E37381F0405060708090A99
:100390000B0C0D0E0F101112131415161718191A35
:1003A0001B1C1D2F3130232D350405060708090AB3
:1003B0000B0C0D0E0F101112131415161718191A15
:1003C0001B1C1D2F3130354C0000000000000000C8
:1003D000000000000000000000000000000000001D
:1003E0000000000000000000000000007E0F00D4AC
:1003F000FFFFFFC7000000780A0025303258006C6C
:1004000065645F7461736B3A20004F6E6573686F4B
:10041000743A206163746976653A2025640A00297C
:100420000A002575002F002575005D280025640051
:100430002000256400200025640020002564007C45
:100440000025303258006D6F7573656B6579205BE0
:1004500062746E7C782079207620685D28726570E1
:100460002F61636C293A205B006261636B6C696782
:10047000687420737465703A2025750A00626163A0
:100480006B6C696768742064697361626C650A00EB
:100490006261636B6C6967687420656E61626C652C
:1004A0000A006261636B6C6967687420746F6767C8
:1004B0006C653A2025750A006261636B6C69676838
:1004C000742064656372656173653A2025750A005E
:1004D0006261636B6C6967687420696E63726561E1
:1004E00073653A2025750A00556E69636F6465204F
:1004F000696E707574206D6F646520736574207407
:100500006F3A2025750A00556E69636F646520692E
:100510006E707574206D6F646520696E69742074E7
:100520006F3A2025750A000A002530325820006BEA
:100530006579626F6172645F7265706F72743A2080
:100540000064656C5F6B65795F6269743A20636112
:100550006E27742064656C3A20253032580A006199
:1005600064645F6B65795F6269743A2063616E27CA
:1005700074206164643A20253032580A005B735D50
:10058000005B575D005B535D005B525D005B445D4B
:10059000005B435D0028034500720067006F004464
:1005A000006F00780020003700360020002200484D
:1005B000006F00740044006F0078002200000022E9
:1005C0000341006C00700061006300610020004B7B
:1005D000006500790062006F0061007200640073C2
:1005E0000000000403090409025B00030100A0FAF3
:1005F0000904000001030101000921110100012289
:1006000040000705810308000109040100010300FF
:10061000000009211101000122B600070582032014
:100620000001090402000203000000092111010079
:100630000122220007058303200001070503032090
:10064000000112010002000000084B4101000100FE
:10065000010200010631FF0974A101097515002688
:10066000FF009520750881020976150026FF009588
:100670002075089102C005010902A1018502090146
:10068000A100050919012908150025019508750122
:1006900081020501093009311581257F9502750810
:1006A000810609381581257F950175088106050C9D
:1006B0000A38021581257F950175088106C0C0059D
:1006C000010980A101850319012AB700150126B788
:1006D00000950175108100C0050C0901A101850478
:1006E00019012AA002150126A002950175108100AA
:1006F000C005010906A1018506050719E029E715CE
:100700000025019508750181020507190029EF15DB
:1007100000250195F075018102050819012905954B
:100720000575019102950175039101C00501090646
:10073000A101050719E029E71500250195087501B4
:1007400081029501750881010507190029FF15002F
:1007500026FF0095067508810005081901290595F1
:100760000575019102950175039101C011241FBE09
:10077000CFEFDAE0DEBFCDBF04B603FE18C0809134
:100780001B0390911C03A0911D03B0911E038730A1
:10079000904BA740B04B59F410921B0310921C03CE
:1007A00010921D0310921E03E0E0F8E3099511E09A
:1007B000A0E0B1E0E2E0F9E502C005900D92A838B2
:1007C000B107D9F723E0A8E8B1E001C01D92AB3131
:1007D000B207E1F70E94BE180C947F2C0C94000025
:1007E000FF93EF93E0918801F0918901309709F030
:1007F0000995EF91FF910895FC018591803011F0EA
:10080000EFDFFBCF0895FF27E0E230E247FF0CC0A7
:10081000419597FF09C0EDE26095709580959095A0
:10082000611D711D811D911D27FF02C0219530E3BF
:1008300050E2AA27660F771F881F991FAA1FA417C7
:1008400010F0A41B63955A95A9F7AA3008F0A95F88
:10085000A05DAF93F395611571058105910541F791
:10086000ED3211F4EF93F395F21718F43F93F395EB
:10087000FBCF8F91B5DFFA95E1F70895E991F991F2
:100880008591803021F0853219F0AADFF9CF0895E3
:1008900020E0E89455915532C1F3503311F4689437
:1008A00055915A3348F4505390F3220F022E220FE1
:1008B000220F200D250FF4CF0EF4219589919991E7
:1008C000533619F3533729F1533559F1BC018827B1
:1008D0009927E8945C3621F489919991689455910F
:1008E000543639F446EF7EF077FF0DC08FEF9FEF5F
:1008F0000AC055374AE039F0583540E121F0523608
:1009000042E009F00895FF93EF937DDFEF91FF91AF
:10091000B7CFFF93EF93FC0181918030B9F360DF93
:10092000FBCFFF93EF9368DFF1CFDF93CF93CDB78A
:10093000DEB72596A3DFCF91DF91089580B38C7049
:1009400080BB81B38C7081BB0C942B0784B1807FFA
:1009500084B985B18F6085B98AB1837F8AB98BB13B
:100960008C608BB93E98469A0C94710708950C944C
:10097000B6040C94B6040E949E040E94A604EEEDF8
:10098000F1E08AE891E011921192DC012EE01D92D3
:100990002150E9F70E9621E08E3D9207A1F70C94C5
:1009A000E1080E949E040E94A604EEEDF1E011828F
:1009B0001082138212821582148217821682118687
:1009C00010861386128608952EE0829FC00111249E
:1009D000FC01E657FE4F20E030E040E050E061E0EF
:1009E00070E09081992319F09150908309C0CB0158
:1009F000022E02C0880F991F0A94E2F7482B592B48
:100A00002F5F3F4F31962E30310559F7CA010895B7
:100A1000CF932EE0629FB001112420E030E0A1E0EE
:100A2000B0E0C5E0AD01022E02C0440F551F0A948C
:100A3000E2F748235923452B31F0FB01E20FF31F66
:100A4000E657FE4FC0832F5F3F4F2E30310551F7E1
:100A5000CF910895CF92DF92EF92FF920F931F9361
:100A6000CF930E944D078EEDE82E81E0F82EC0E076
:100A7000C33091F038F4C13091F0C23099F4859AC6
:100A80008D9812C0C43029F0C53061F4809A8898DE
:100A90000BC0819A899808C0849A8C9805C0869A60
:100AA0008E9802C0879A8F988C2F0E942F0780EA19
:100AB0008A95F1F78C2F0E94E4046C010E94A7072D
:100AC000282F30E0369903C000E810E002C000E0B3
:100AD00010E04B9903C080E091E002C080E090E01C
:100AE000082B192B4A9903C080E092E002C080E0F5
:100AF00090E0082B192B1B9903C040E054E002C082
:100B000040E050E0042B152B1A9903C060E078E018
:100B100002C060E070E0062B172B199903C080E03B
:100B200090E102C080E090E0082B192B189903C0D7
:100B300040E050E202C040E050E0F7018081918146
:100B4000042B152B022B132B082719270C211D21F1
:100B5000082719276C2F802791270E940805F70185
:100B6000019311937F010E949E04CF5FC63009F06C
:100B70007FCF0E94E30881E0CF911F910F91FF90FA
:100B8000EF90DF90CF900895E82FF0E0EE0FFF1F79
:100B9000E252FE4F808191810895CF92DF92EF92D1
:100BA000FF920F931F93CF93DF9388EE90E00E9404
:100BB000FC038EEDE82E81E0F82EC0E0D0E093EE4D
:100BC000C92E90E0D92E0AED10E0DF93CF93DF928B
:100BD000CF920E94950480EE90E00E94FC03F70102
:100BE000819191917F010E94FD099F938F931F93A3
:100BF0000F930E94950488ED90E00E94FC032196DB
:100C00008DB79EB708960FB6F8949EBF0FBE8DBFE6
:100C1000C630D105D1F6DF91CF911F910F91FF9092
:100C2000EF90DF90CF9008951092B9008CE0809300
:100C3000B80008959F92AF92BF92CF92DF92EF9249
:100C4000FF920F931F93CF93DF93B82EEB010E9477
:100C50009B236C01C431D10558F0CF3F8FEFD807EB
:100C600059F0CE0164E170E00E94C62B7B0107C001
:100C7000EE24E394F12C03C025E0E22EF12C84E86D
:100C8000A82E94EA992E1092BC009092BC000E946B
:100C90009B238C018091BC0087FD08C00E949B2390
:100CA000801B910B8E159F05A8F32AC08091B90077
:100CB000887F883041F08091B900887F803119F0B9
:100CC0000FEF1FEF1FC0B092BB00A092BC000E94AC
:100CD0009B238C018091BC0087FD08C00E949B2350
:100CE000801B910B8E159F05A8F30AC08091B90057
:100CF000887F883111F0803419F700E010E00EC0D1
:100D00000EEF1FEFCF3F8FEFD80709F4BCCFC6011E
:100D10000E94B3238C179D0708F4B5CFC801DF915B
:100D2000CF911F910F91FF90EF90DF90CF90BF90E8
:100D3000AF909F9008950F931F93CF93DF93EB0194
:100D40008093BB0084E88093BC000E949B238C01AD
:100D50008091BC0087FD0EC0CF3F8FEFD807C1F355
:100D60000E949B23801B910B8C179D0788F38EEFAD
:100D70009FEF0CC02091B900287F81E090E02832DD
:100D800011F480E090E0919581959109DF91CF91E8
:100D90001F910F9108950F931F93CF93DF93EC0151
:100DA00084E88093BC000E949B238C018091BC004E
:100DB00087FD0EC0CF3F8FEFD807C1F30E949B2362
:100DC000801B910B8C179D0788F38EEF9FEF03C05C
:100DD0008091BB0090E0DF91CF911F910F9108951A
:100DE00084E98093BC0008951092EA010E941406E1
:100DF0002FEF83ED90E3215080409040E1F700C059
:100E0000000080E008951F93CF93DF939091EA0153
:100E10009923E1F0D62F182F64E670E080E40E9459
:100E20001A06C82F81110EC064E670E0812F0E945F
:100E30009B06C82F811106C064E670E08D2F0E94CA
:100E40009B06C82F0E94F0068C2F01C080E0DF9126
:100E5000CF911F9108956FE381E00C94030761E047
:100E600070E001C0660F8A95EAF7609581E00C9406
:100E700003076FE780E00E9403076FE782E00E94AC
:100E800003076FE78CE00E9403076FEF81E00E9489
:100E9000030760EC83E10C94030764E670E080E4F0
:100EA0000E941A06811110C00E94F0068091EA018A
:100EB000811116C081E08093EA010E9439070E94E7
:100EC000850E87E191E00AC08091EA01882341F014
:100ED0001092EA010E94850E8FEF90E00C94FC03C3
:100EE00008950E94F4060C944D070F931F93CF931F
:100EF000DF939091EA01992321F18B01D82F64E6C9
:100F000070E080E40E941A06C82F811116C064E6C2
:100F100070E08D2F0E949B06C82F81110EC064E6E1
:100F200070E081E40E941A06C82F811106C084E691
:100F300090E00E94CB06F80180830E94F0068C2F7F
:100F400001C080E0DF91CF911F910F910895CF9361
:100F5000DF931F92CDB7DEB71982BE016F5F7F4F5F
:100F600082E10E94750789810F90DF91CF910895EA
:100F7000279A2F98259A2D9A269A2E9A249A2C9A57
:100F8000259A2D982FEF80E792E0215080409040E5
:100F9000E1F700C00000269A2E982FEF80E792E03C
:100FA000215080409040E1F700C00000249A2C9826
:100FB0002FEF80E792E0215080409040E1F700C0A1
:100FC0000000259A2D9A2FEF80E792E02150804073
:100FD0009040E1F700C00000269A2E9A2FEF80E79C
:100FE00092E0215080409040E1F700C00000249A38
:100FF0002C9A279A2F9A259A2D98269A2E98249AD9
:101000002C982FE782E490E1215080409040E1F756
:1010100000C00000279A2F98259A2D9A269A2E9A7A
:10102000249A2C9A08950E94B8070C94B7049C0146
:101030003A9521153F4130F5BC0166277270AC012D
:10104000442754709C012227387094FF0FC090FFF2
:1010500002C080E101C080E0672B09F08062452B6F
:1010600009F08064232B79F080680895892F8170BE
:10107000672B09F08260452B09F08460232B19F05F
:101080008860089580E00895CF93DF93EB010E947C
:101090001708FE01DF91CF910994CF93DF93EC0104
:1010A000805E9109089710F0209719F46CED7BE0B1
:1010B00002C06FE57EE0CE010E9444088C2FDF91D4
:1010C000CF910C94AA0ACF93DF93EC010E94540BAA
:1010D000CE01805E9109089710F0209719F463EE15
:1010E0007BE002C066E67EE0CE01DF91CF910C94FA
:1010F0004408CF93DF93EC010E944D08C933D1051A
:1011000049F42FEF87EE93E0215080409040E1F7C3
:1011100000C00000CE01DF91CF910C94630881E004
:10112000089581E008950C94910808950C94950811
:101130001F93CF93DF9300D000D01F92CDB7DEB7BF
:1011400049835A836B833091EC0189819A813111F3
:1011500014C0662359F0222349F00E943210182F40
:10116000682F89819A810E94DB0F03C00E940610BC
:10117000182F69817A81812F04C00E943210698101
:101180007A810F900F900F900F900F90DF91CF9179
:101190001F910C948717FC01262F40815181628199
:1011A000738184810C94980881E00895CF93DF9334
:1011B000EC0160E00E94CB08BE01DF91CF910C945E
:1011C00096080C9413080C94B90408950E94850E97
:1011D0000E94E5082FEF84E39CE02150804090407E
:1011E000E1F700C000000C94E8230F931F93CF9306
:1011F000DF938C0161E00E94CB08EC01B8010E94F2
:101200009308882369F1B801CE010E942F1D88231D
:1012100039F1B801CE010E941F1F882309F1B801DE
:10122000CE010E9427218823D9F0B801CE010E9467
:101230003B1F8823A9F0B801CE010E948320882398
:1012400079F0F80182818823E1F1CF3D8CE5D80760
:1012500081F160F4C115FCE5DF0721F40E94E60886
:10126000C0E036C0C130DC4579F02BC0CC35EDE5AF
:10127000DE0729F1CD35FDE5DF07F1F0CB35DD45A2
:1012800001F50E94CC141DC08091BC02C82FC095EE
:10129000C170C0FB80F98093BC02CC2329F087E3A6
:1012A00093E00E94FC03DCCF85E293E00E94FC0304
:1012B0000FC00E948015D4CF0E94C31402C00E94A8
:1012C000CF14C801DF91CF911F910F910C948F081B
:1012D0008C2FDF91CF911F910F9108950E941E23B3
:1012E00080E00E94641D0C94210A0E94E71B0E946A
:1012F000240A0C942223DF92EF92FF920F931F9304
:10130000CF93DF93E82FF0E0E85BFC4FD490282FD9
:1013100026952695269530E0F901E851FC4F049179
:10132000877010E0082E02C0159507950A94E2F721
:1013300001701127F901E852FC4FE490F12C082EBE
:1013400002C0F594E7940A94E2F791E0E922FF24C1
:10135000F901E853FC4FC491D0E002C0D595C79580
:101360008A95E2F7C170DD270115110519F081EEAC
:101370000E94AA0AE114F10419F086EE0E94AA0A5A
:101380008D2D0E94D30BEF2819F086EE0E94540B8E
:10139000012B19F081EE0E94540BCD2B51F08CE201
:1013A000DF91CF911F910F91FF90EF90DF900C9400
:1013B000D30BDF91CF911F910F91FF90EF90DF90B2
:1013C0000895982F9F709A50963010F0805D01C05C
:1013D000895A0C947B098295982F937344E0949FCB
:1013E000900111248C7C86958695282B822F8575FB
:1013F000880F2A7A2695822B0895CF93DF93D92FD1
:101400000E94EB09C82F8D2F0E94EB092C2F30E092
:10141000322F2227A901482BCA01DF91CF910895CD
:1014200008950C94100A81E008950C94130A08950D
:10143000CF93C82F0E94110A8C2F0E94150ACF91BA
:10144000089580E00C94180A0E9483210C94180AD5
:10145000CF930E948321C82F8091EB01C81741F1DF
:10146000C093EB018091BC0282FF1EC080FF04C0CC
:101470008FEF93E00E94FC038091BC0280FF0CC0C0
:101480001F92CF938AEF93E09F938F930E949504CE
:101490000F900F900F900F908091BC0280FF04C0BE
:1014A00088EF93E00E94FC038C2FCF910C94180AD4
:1014B000CF910895CF93DF93CDB7DEB72B970FB6BB
:1014C000F894DEBF0FBECDBF4F83588769877A87F8
:1014D0008B8761110E94FB139E012F5F3F4F86E0B7
:1014E000F90111928A95E9F785E0FE013796D90155
:1014F00001900D928A95E1F789819A814C815D81F5
:10150000452B31F09F3F31F491E08F3F19F403C038
:1015100091E001C090E090FF09C049815A816B8140
:101520007C818D819E810E94191305C0C9010E9492
:10153000D4088111F2CF2B960FB6F894DEBF0FBE00
:10154000CDBFDF91CF910895FC01808191810E94F0
:1015500074100895CF93882309F4A4C0C82F82384B
:10156000C1F40E94832181FD9DC069E38091020145
:10157000909103010E94D9220E941D142FEF81EE49
:1015800094E0215080409040E1F700C0000069E302
:1015900019C0833801F50E94832180FD83C063E573
:1015A00080910201909103010E94D9220E941D1492
:1015B0002FEF81EE94E0215080409040E1F700C091
:1015C000000063E580910201909103010E94E422F2
:1015D000CF910C941D148438C1F40E94832182FDA4
:1015E00061C067E480910201909103010E94D922B9
:1015F0000E941D142FEF81EE94E021508040904016
:10160000E1F700C0000067E4DDCF8CEF8C0F813A7A
:10161000D0F46C2F80910201909103010E94372237
:10162000882349F06C2F80910201909103010E9460
:10163000E4220E941D146C2F8091020190910301FD
:101640000E94D922C5CF80E28C0F883048F4C77041
:1016500081E001C0880FCA95EAF70E94DB13B8CF7A
:10166000EBE5EC0FE33040F4F0E0EB5BFE4F808104
:1016700090E0CF910C94F521E8E5EC0FE73150F4C0
:10168000F0E0EE0FFF1FE95EFE4F80819181CF9168
:101690000C940B22CD3E30F08C2F0E944319CF9139
:1016A0000C94151ACF910895882309F464C08238E8
:1016B00079F40E94832181FF5EC069E38091020179
:1016C000909103010E94D9220E941D1469E310C069
:1016D0008338B1F40E94832180FF4DC063E580917F
:1016E0000201909103010E94D9220E941D1463E51A
:1016F00080910201909103010E94E4220C941D1438
:10170000843879F40E94832182FF35C067E4809198
:101710000201909103010E94D9220E941D1467E4E6
:10172000E7CF9CEF980F913A10F4682FE1CF90E249
:10173000980F983050F4877091E001C0990F8A9506
:10174000EAF7892F0E94E113D9CF9BE5980F9330D8
:1017500020F480E090E00C94F52198E5980F973103
:1017600020F480E090E00C940B228D3E20F00E944B
:101770009E190C94151A08951F93CF93DF93182F79
:10178000EB010E94AA0A209741F08FE99FE00197A0
:10179000F1F700C000002197F6CF812FDF91CF91A4
:1017A0001F910C94540B893319F060E070E002C073
:1017B00060E570E00C94BC0B882321F00E94DB13E1
:1017C0000C941D140895882321F00E94E1130C94B9
:1017D0001D140895CF92DF92EF92FF920F931F9303
:1017E000CF93DF937C01D62FC72FFC011281058197
:1017F00002950F700E94D1138823B9F01123A9F02C
:101800008C2F807F803421F080E28D0F883068F04B
:101810008091010382FD09C082E00E947D140E9434
:10182000D11391E0D82ED92601C0D12CCC2EC29450
:101830008FE0C8228C2D90E08C30910508F0C7C154
:10184000FC01EA5AFF4F0C94102C8C2F807FCF7034
:10185000882311F0C295C07F112399F0CC2309F49D
:10186000A2C180E28D0F883010F0D11104C08C2FFE
:101870000E94DB1303C08C2F0E94EE130E941D14E4
:1018800092C18D2F0E94540BCC2309F4A0C180E299
:101890008D0F883038F1DD2329F18C2F0E94F4134D
:1018A00024C08C2F807FCF70803211F0C295C07F12
:1018B000DD2319F0D130A1F13FC08091010382FFF7
:1018C00017C0112349F0CC2329F08C2F0E94DB1381
:1018D0000E941D1480E068C180E00E94540BCC235C
:1018E00009F475C18C2F0E94E1130E941D146FC171
:1018F000112371F0002341F0013031F40E94FE13F6
:101900008C2B0E94061463C10E94FE138C2B0EC008
:10191000002319F0013009F45AC10E9413141EC0AB
:10192000112339F0023008F052C18C2F0E94DC0BD9
:101930004EC101114CC112C0112319F00023A9F3AB
:1019400032C1002359F0D93309F03EC1FFEF07EE51
:1019500013E0F15000401040E1F734C18C2F0E9499
:10196000E30B35C18C2F86958695837019F08130F5
:1019700061F02DC1112321F08D2F9C2F937002C097
:1019800080E090E00E94F5212AC1112321F08D2FE3
:101990009C2F937002C080E090E00E940B221FC138
:1019A0008D2F112319F00E94431902C00E949E1925
:1019B0000E94151A14C18C2F837009F047C01111B1
:1019C0000AC12D2F229526952770220F220F6D2FE9
:1019D0006F70862F90E0A0E0B0E0022E04C0880F68
:1019E000991FAA1FBB1F0A94D2F7D4FF10C04FE063
:1019F00050E060E070E004C0440F551F661F771F81
:101A00002A95D2F7409550956095709503C040E0B7
:101A100050E0BA01C695C695C3708A019B01082B98
:101A2000192B2A2B3B2BC901B801C23049F058F4BD
:101A3000C13019F00E94F10ECEC00E94DF0ECBC063
:101A40000E94030FC8C00E94DD0EC5C0112319F00B
:101A50008C2F817001C08695882309F4BCC02D2F7E
:101A6000229526952770220F220F6D2F6F70862FDB
:101A700090E0A0E0B0E0022E04C0880F991FAA1FDA
:101A8000BB1F0A94D2F7D4FF10C04FE050E060E0D3
:101A900070E004C0440F551F661F771F2A95D2F7C8
:101AA000409550956095709503C040E050E0BA01B4
:101AB000C695C695C3708A019B01082B192B2A2B4A
:101AC0003B2BC901B801C23049F058F4C13019F0BC
:101AD0000E94B60F80C00E94A40F7DC00E94C80F54
:101AE0007AC00E94170F77C0CF70112339F08C2F66
:101AF0000E943D0F8D2F0E94DC0B6DC08D2F0E9428
:101B0000E30B8C2F0E945E0F66C0D23F19F128F4C0
:101B1000D03F41F0D13FB9F042C0D33F11F1D43FA3
:101B200071F03DC0112339F0011151C08C2F8F711C
:101B30000E94830F4CC0023008F049C0F7CF80915B
:101B4000010382FF18C0112339F08C2F8F710E947E
:101B50003D0F3DC01123C9F38C2F8F710E945E0F82
:101B600036C0112329F08C2F8F710E94280F2FC0AF
:101B70000E94230F2CC0112349F0CF718C2F0E949B
:101B80003D0F63E08C2F0E94621421C081E00E940F
:101B90007D140230E0F082E00E947D1418C0112311
:101BA00031F0002391F28D2F0E94AA0A10C0002369
:101BB00099F2D93349F41FEF27EE33E0115020405A
:101BC0003040E1F700C000008D2F0E94540B88EFD9
:101BD0008C0D843020F40E9483210E94180ADD209D
:101BE000C9F00E94CD1380FD15C0F70112820E943A
:101BF000C7130E943D0FC7010E942B0E0E94C713FE
:101C0000DF91CF911F910F91FF90EF90DF90CF90D8
:101C10000C945E0FDF91CF911F910F91FF90EF9089
:101C2000DF90CF9008950F931F93CF93DF93EC0134
:101C3000688179818A810E947F108C010E94DA0F6D
:101C40000E94CB0EB801CE010E94EA0BDF91CF912A
:101C50001F910F910895CF93DF93EC0198818981B3
:101C60002B813C81232B31F08F3F31F481E09F3F6A
:101C700019F403C081E001C080E080FD1DC0CE01E9
:101C80000E94F508811110C00E94D1138823A1F091
:101C90008A81882389F08091010382FD0DC082E052
:101CA000DF91CF910C947D14CE010E94130ECE01D2
:101CB000DF91CF910C94D608DF91CF9108958823BE
:101CC00021F00E94EE130C941D140895882321F036
:101CD0000E94F4130C941D14089580E090E00E947B
:101CE000F52180E090E00E940B220E94FB130E94ED
:101CF0001D140E94C81B0C94151A8091020190912A
:101D000003010E94EF220C946D0E0E94EB130C94C1
:101D10007D0E92959F70963079F010F4925001C02C
:101D20009A50923068F4803F69F018F4883E40F48D
:101D300009C0843F29F406C0883E20F0813F11F09D
:101D400080E0089581E00895FC01808191810E94E6
:101D500074100E94890E0895CF93DF9300D000D0B5
:101D60001F92CDB7DEB70F900F900F900F900F908E
:101D7000DF91CF910895CF93DF9300D000D000D0B2
:101D8000CDB7DEB726960FB6F894DEBF0FBECDBF37
:101D9000DF91CF910895089508950C94CC0E0C9482
:101DA000CD0E0E94CF0E609328027093290280937B
:101DB0002A0290932B020C946D0E0C94D10E0F936B
:101DC0001F93009128021091290220912A0230913C
:101DD0002B02602B712B822B932B1F910F910C9454
:101DE000D10E0F931F930091280210912902209188
:101DF0002A0230912B0260237123822393231F91A7
:101E00000F910C94D10E0F931F9300912802109103
:101E1000290220912A0230912B0260277127822704
:101E200093271F910F910C94D10E0C94CC0E0E940D
:101E3000150F6093240270932502809326029093DD
:101E400027020C946D0E60E070E0CB010C94170F2C
:101E50000F931F9341E050E060E070E08A019B0126
:101E600004C0000F111F221F331F8A95D2F7C9012A
:101E7000B8011F910F910C94170F0F931F9341E01E
:101E800050E060E070E004C0440F551F661F771FEC
:101E90008A95D2F78091240290912502A091260282
:101EA000B09127028A019B01082B192B2A2B3B2B6F
:101EB000C901B8011F910F910C94170F0F931F9335
:101EC00041E050E060E070E004C0440F551F661F21
:101ED000771F8A95D2F740955095609570958091BF
:101EE000240290912502A0912602B09127028A0136
:101EF0009B01082319232A233B23C901B8011F9101
:101F00000F910C94170F0F931F9341E050E060E086
:101F100070E004C0440F551F661F771F8A95D2F7E3
:101F20008091240290912502A0912602B09127026F
:101F30008A019B01082719272A273B27C901B801D5
:101F40001F910F910C94170F0F931F930091240270
:101F5000109125022091260230912702602B712BCF
:101F6000822B932B1F910F910C94170F0F931F939C
:101F7000009124021091250220912602309127021F
:101F800060237123822393231F910F910C94170FC9
:101F90000F931F9300912402109125022091260295
:101FA0003091270260277127822793271F910F9175
:101FB0000C94170F08952EE0929F800D1124E82FA6
:101FC000E695E695E695877051E001C0550F8A9534
:101FD000EAF785E0E89FF0011124E351FE4F20E08D
:101FE00030E070E04081CB01022E02C096958795CB
:101FF0000A94E2F781708195842785238427819351
:102000002F5F3F4F2530310569F708952EE0929FED
:10201000800D1124682F669566956695982F9770A8
:1020200085E0689FB001112440E050E080E0FB01B2
:10203000E40FF51FE351FE4F208130E0092E02C06E
:10204000369527950A94E2F721703327042E01C0B4
:10205000220F0A94EAF7822B4F5F5F4F45305105FC
:1020600031F70895BF92CF92DF92EF92FF920F93D4
:102070001F93CF93DF938C01C0902402D090250250
:10208000E0902602F0902702809128029091290288
:10209000A0912A02B0912B02C82AD92AEA2AFB2A47
:1020A000CFE1D0E0D701C6010C2E04C0B695A795AC
:1020B000979587950A94D2F780FD04C0219790F7F1
:1020C000B12C07C0BC2EB8018C2F0E949A17019723
:1020D000A9F38B2DDF91CF911F910F91FF90EF907E
:1020E000DF90CF90BF900895CF93DF93EC010E94D3
:1020F0003210BE010E949A17DF91CF9108951F936D
:10210000CF93DF93EB019091EC01992321F0CB0168
:102110000E94741013C0882349F0CB010E94321032
:10212000182F682FCE010E94DB0F04C0CB010E9444
:102130000610182FBE01812F0E949A17DF91CF91B0
:102140001F9108951F93CF93DF93C0912C0216E047
:1021500080912D02C81799F0D0E01C9FF0011D9FBF
:10216000F00D1124E25DFD4F408151816281738148
:10217000848195810E94BB0E2196C770E9CFDF91C3
:10218000CF911F91089540915E0250915F0260913E
:1021900060027091610280916202909163020C94DE
:1021A000BB0EEF92FF920F931F93CF93DF9380911B
:1021B000630282958F7009F065C080916002882368
:1021C00009F460C080912C02F0902D0210915E0203
:1021D00000915F02609161027091620291E01F3F85
:1021E00009F090E0C0910001D0910101292F96E003
:1021F000E92E8F1509F446C06115710521F00F3FD6
:1022000021F030E003C031E001C0322F90E030FD1A
:1022100036C0E89EF001E99EF00D1124DF01A25DB9
:10222000BD4F11963C911197301329C03C91311349
:1022300026C012963C911297311121C013964D91F0
:102240005C911497461B570B4C175D07C0F48091A7
:1022500063028F70806180936302ED5CFD4F80812B
:102260008F70806180838EE592E00E942B0EDF915B
:10227000CF911F910F91FF90EF900C94A2100196B7
:102280008770B7CFDF91CF911F910F91FF90EF90A3
:1022900008959F92AF92BF92CF92DF92EF92FF92FA
:1022A0000F931F93CF93DF93CDB7DEB761970FB630
:1022B000F894DEBF0FBECDBF8C0185E0F801DE01D2
:1022C0001D9601900D928A95E1F7D8011296EC9037
:1022D00090915E02E0915F02209161023091620272
:1022E0002115310531F0EF3F31F481E09F3F19F4C2
:1022F00003C081E001C080E0B82FB1709B2E80FD4B
:1023000047C1D8014C9111965C9111971396AD90ED
:10231000BC9014978EE5C82E82E0D82EF090600213
:10232000B501621B730B2091000130910101FF2068
:1023300009F4D9C0809163026217730708F095C051
:10234000282F207F09F052C05E1313C0491311C01B
:10235000FE2CE1100EC08F708061809363020E949A
:10236000C310C6010E942B0E80916302F801858381
:102370004DC1AB2831F05F3F31F481E04F3F19F49C
:1023800003C081E001C080E080FD03C081E08E25B4
:1023900002C080E090E0F82FF170FF2E80FF1CC09B
:1023A00080912C0220912D0236E0821709F40BC196
:1023B00090E0389FF001399FF00D1124E25DFD4F50
:1023C0006181561306C06081461303C06281E61224
:1023D00003C001968770E9CFFE2CEE2009F416C1E8
:1023E0008091630281608093630254C05E1306C0D3
:1023F000491304C0E11002C0F80199C0C8010E944D
:10240000A40E882361F1EE2051F120916302822F06
:1024100082958F7090E0029774F080915E029091A7
:102420005F0298878F831986BB86AA862C87CE0188
:1024300007960E942B0E86E0F801AEE5B2E001900F
:102440000D928A95E1F70E94D1100E94C3100AC034
:102450005E1711F1C8010E94A40E81112CC0C801A1
:102460000E942B0EFF24F394D1C0282F207F81F7E8
:102470007A2DB98AA88A6E2D89890E94AC0E8EE5C4
:1024800092E00E942B0E86E0D6011D928A95E9F714
:102490000E94C310F12CBAC04913DCCFE110DACF8F
:1024A000F8018583C8010E942B0E86E0D6011D929B
:1024B0008A95E9F7ABC0EE2091F220916302822F5A
:1024C00082958F7090E002970CF4B5CF80915E02F8
:1024D00090915F029A8389831B82BD82AC822E8396
:1024E000CE010196A6CF6217730708F044C0FE2CF8
:1024F000EE2009F4B4CF5E1330C049132EC02091F2
:10250000630220FD21C0822F82958F70482F50E0FA
:1025100041155105C9F0F80125834F30510541F0AF
:102520008F5F982F9295907F822F8F70892B858354
:10253000C8010E942B0E86E0F801AEE5B2E00190E2
:102540000D928A95E1F73CC086E0F801AEE5B2E075
:1025500001900D928A95E1F759C0C8010E94A40E1E
:10256000811169CF80916302816080936302C80109
:102570000E942B0E4BC07A2DB98AA88A6E2D8989AC
:102580000E94AC0E86E0D6011D928A95E9F718C02C
:10259000EE2009F464CFC8010E94A40EF82E88230F
:1025A00009F45DCF86E0F801AEE5B2E001900D924E
:1025B0008A95E1F78EE592E00E94A40A0E94D1106C
:1025C0000E94C31023C04D875E878D859E850E9423
:1025D0007410292F22952F70223028F49F7039F023
:1025E000811105C00BC0243028F49F7049F4805E2F
:1025F000883020F0C8010E942B0E9F2CF92C06C0B9
:10260000D80115969C91907F91F7F8CF8F2D619608
:102610000FB6F894DEBF0FBECDBFDF91CF911F91F3
:102620000F91FF90EF90DF90CF90BF90AF909F9071
:1026300008951F93CF93DF93CDB7DEB72C970FB6D6
:10264000F894DEBF0FBECDBF4F83588769877A8766
:102650008B879C87CE0107960E9449118823D1F071
:102660009F8188852A853B85232B31F08F3F31F46C
:1026700081E09F3F19F403C081E001C080E080FD4C
:1026800047C04F81588569857A858B859C850E94D6
:10269000BB0E3EC086E0FE013796DE01119601902A
:1026A0000D928A95E1F7FF81E8856A857B85611542
:1026B000710531F0EF3F31F481E0FF3F19F403C0C1
:1026C00081E001C080E080FD23C020912D0230E038
:1026D000C90101968770992740912C0250E0841718
:1026E0009507F1F1F983EA837D836C8396E0929FED
:1026F000D001939FB00D1124A25DBD4FFE01319614
:1027000001900D929A95E1F780932D020E94A210FC
:1027100016E080912C0290912D02891771F1189F7B
:10272000C0011124825D9D4F0E944911882329F127
:10273000E0912C021E9FF0011124E25DFD4F4081CB
:10274000518162817381848195810E94BB0E809149
:102750002C0290E001968770992780932C02D9CFA4
:102760000E94850E10922D0210922C02EEE5F2E0EE
:1027700086E0DF011D928A95E9F72C960FB6F89452
:10278000DEBF0FBECDBFDF91CF911F910895809125
:10279000840285958595859508958091840287703A
:1027A000089590918402977081E009F480E0089583
:1027B0008091A70208959091A702892B8093A70288
:1027C000089580959091A70289238093A702089588
:1027D0008093A70208951092A70208959091A602EF
:1027E000892B8093A602089580959091A602892353
:1027F0008093A60208951092A60208958091850202
:10280000089508950C9401140C94021490910103FE
:1028100092FD08C090918502981721F0809385025F
:102820000C940414089580918502882329F0109255
:10283000850280E00C9404140895CF93DF93E09117
:102840000201F09103018091A7028083E0910201CF
:10285000F091030190818091A602892B8083809161
:102860008502882381F0E0910201F09103019081BB
:10287000892B808380910201909103010E94212283
:1028800081110E941314C0910201D091030140E212
:1028900050E064E672E0CE010E94302C892B69F092
:1028A00080E2FE01A4E6B2E001900D928A95E1F784
:1028B000CE01DF91CF910C949221DF91CF910895B9
:1028C0000C9401149091010392FD10C098E0899F2F
:1028D00090011124262B209384020E943D0F8091A9
:1028E00084028595859585950C9460140C943D0F14
:1028F0001092840280E00C946014209184028095F0
:10290000822380938402982F977099F430E0482FA7
:10291000082E000C550B2417350759F09091010330
:1029200092FD07C08595859585950E945E0F0C9454
:1029300078140895CF939091010392FB222720F9F8
:102940002817F9F0C82F892FC0FB82F98093010363
:1029500080910003909101030E94FC1482E00E9488
:102960007D148091BC0280FF0CC01F92CF938AE03F
:1029700094E09F938F930E9495040F900F900F9077
:102980000F90CF9108958091010382FB882780F9F1
:1029900091E089270C949A1481E00C949A1480E0B9
:1029A0000C949A146FEF7FEF80E090E00C94692C08
:1029B00080E090E00E94452C21E0893E9E4F09F086
:1029C00020E0822F089582E090E00C943D2C83E07B
:1029D00090E00C943D2CCF9384E090E00E943D2C3D
:1029E000C82F82E290E00E943D2C2C2F30E0A901FC
:1029F000582BCA01CF910895CF93C92F682F84E037
:102A000090E00E944B2C6C2F82E290E0CF910C94CE
:102A10004B2CAB01BC018FE090E00C945D2CAB0122
:102A2000BC0183E190E00C945D2C60E070E0CB0190
:102A30000C940F1560E070E0CB010E9409150C9416
:102A4000151569EE7EEF80E090E00E94692C60E051
:102A500082E090E00E944B2C60E083E090E00E94D6
:102A60004B2C109228021092290210922A021092E6
:102A70002B0260E084E090E00E944B2C60E082E258
:102A800090E00E944B2C60E085E090E00E944B2C8F
:102A900060E086E090E00E944B2C6FEF87E090E0D2
:102AA0000E944B2C40E050E0BA0188E090E00E9488
:102AB0005D2C60E08DE090E00E944B2C40E050E007
:102AC000BA0188E190E00E945D2C60E087E190E02F
:102AD0000E944B2C40E050E0BA018CE190E00E9453
:102AE0005D2C60E070E080E290E00E94692C40E0A4
:102AF00050E0BA0188E190E00E945D2C0C941A1518
:102B00000C942115682F8EE090E00C944B2C0E94C1
:102B1000A7236093B8027093B9028093BA0290938E
:102B2000BB026093B4027093B5028093B602909397
:102B3000B702089585B7806885BF85B7806885BF6F
:102B4000089581E008950C94A11508950C94A5159D
:102B50000C94A5150C94A8150C94A5150C94AC1503
:102B60000C94A5150E949A1584EF95E20E94792194
:102B70000E94B0150C94AE150E94A6150C94A515D4
:102B80000E948E180E94170A0E941A1E0C94521E50
:102B90000E9492230E94BB040E94C0150E94E71B62
:102BA0000C94AA155F926F927F928F929F92AF9230
:102BB000BF92CF92DF92EF92FF920F931F93CF932A
:102BC000DF93CDB7DEB72A970FB6F894DEBF0FBEFE
:102BD000CDBF0E942A05C82E81110E94871538EAB0
:102BE000832E32E0932E00E010E0502E802F0E94C2
:102BF000C4055C01F401619071904F01682679264B
:102C000061147104B1F40F5F1F4F0630110569F7AD
:102C10008FEF89838A831B820E949B238160782F98
:102C20009D838C8349815A816B818D810E945A0AD0
:102C30003AC08091BC0281FD0E94CD05D12CEE24CA
:102C4000E394F12CC3018E219F21892B29F10E944D
:102C5000A3158823A9F0DE825F82AE20BF2081E029
:102C6000AB2809F480E088870E949B238160782F3D
:102C70009A8789874E815F8168858A850E945A0A72
:102C8000000F111FF801E855FD4F80819181E82662
:102C9000F926F182E08207C0D394EE0CFF1CFEE01F
:102CA000DF12D0CFB0CF81E0C11001C080E02A9602
:102CB0000FB6F894DEBF0FBECDBFDF91CF911F914D
:102CC0000F91FF90EF90DF90CF90BF90AF909F90CB
:102CD0008F907F906F905F9008950E94D2150E9410
:102CE000191E0E94B51A0C94280ACF93DF930E94F4
:102CF0009F17EC01811521E5920708F045C0811569
:102D000030E5930708F094C0883E910528F5803E91
:102D1000910508F0F8C0883A910570F4853A91055C
:102D200008F07CC08130910509F475C008F4E8C052
:102D3000049708F0E8C0E4C08F3B910508F0E0C0BC
:102D4000C85AD0E0CC0FDD1FC85BDE4F0990D88198
:102D5000C02DCE019464D8C0811540E2940758F488
:102D6000811551E0950708F0CEC08D3E910508F41D
:102D7000C7C09065C9C0C11580E4D80708F4C0C0B9
:102D8000DF70CE01906AC0C0811525E59207A8F4D6
:102D9000811534E5930708F095C0811543E5940744
:102DA00008F07BC0811552E5950708F061C0D82F67
:102DB000CC27CE01816F906AA7C0C11589E5D807DD
:102DC000A0F4C11528E5D20708F082C0C11536E588
:102DD000D30708F095C08C2F0E9433188F7190E0B4
:102DE000D82FCC27CE0190628FC0C1154AE5D407F9
:102DF00008F474C0CE0190568115904208F080C04E
:102E00008D2F8F710E943318DD27D0628F71AE0134
:102E1000582BCA0179C081E090E076C0C55AD0E055
:102E2000CA58DE4F8881C82FD0E0CE0190646CC0B4
:102E300074E0969587957A95E1F7282F23703C2FBB
:102E4000337081E090E002C0880F991F3A95E2F755
:102E50009C68AC01522B9A019C2F9F709695969579
:102E600050E2959FE0011124C9018C2B9D2B4CC091
:102E70008370992721E030E002C0220F331F8A952A
:102E8000E2F79C2F9695969580E2989FE001112499
:102E9000C22BD32BCE019C6837C08370992721E0C9
:102EA00030E002C0220F331F8A95E2F79C2F9695DF
:102EB000969540E2949FE0011124C22BD32BCE01C2
:102EC0009A6822C0D82FCC27CE01846F906A1CC08C
:102ED000DC2FCC27CE01806F906A16C08C2F8F70AC
:102EE0000E94331894E0D695C7959A95E1F7CF7074
:102EF000D0E0DC2FCC27D0699E01282BC90104C06B
:102F000080E090E001C0CE01DF91CF91089524E5EB
:102F1000829FC0011124FC012EE0729FE00DF11D83
:102F20001124E60FF11DEE0FFF1FE35DFE4F8591AB
:102F3000949108950E9487170E947516089582380B
:102F4000910569F1B0F48133910509F46DC048F43D
:102F50008932910509F463C08A32910509F469C088
:102F600008958533910509F455C089339105B9F069
:102F70000895833E910569F138F4803E9105B1F0E2
:102F8000823E910509F10895863E9105A9F1873E9B
:102F90009105B9F1843E910509F064C023C02091E8
:102FA000000320FD4FC021FD4DC008958091000316
:102FB00080FD44C08091010380FF44C080910003E4
:102FC00084FD42C083EE4DC08091000382FF38C073
:102FD000F5CF8091000382FD33C08091010380FD15
:102FE00031C0ECCF8091010381FF32C0809100039A
:102FF00084FD2AC087EE35C08091000383FF26C080
:10300000F5CF8091000383FD21C08091010381FDF4
:103010001FC0ECCF8091000385FD1CC01DC08091B6
:10302000000385FD19C016C08091000386FD16C0FF
:1030300017C08091000386FD13C010C089E311C042
:1030400082EE0FC080EE0DC080E00BC086EE09C09E
:1030500084EE07C089E205C085E303C08AE201C0AF
:1030600081E390E008959091000392FF0DC0282F16
:103070002871283019F4877F846006C0282F2471B6
:10308000243011F48B7F886093FF0DC0282F2871A6
:10309000283119F4877E846106C0282F24712431D9
:1030A00011F48B7E88612091010320FF0DC0382F21
:1030B0003871383019F4877F816006C0382F31713C
:1030C000313011F48E7F886021FF0DC0282F2871C8
:1030D000283119F4877E816106C0282F21712131A2
:1030E00011F48E7E886194FD877E08950C94D2142D
:1030F0000E942A058FE39CE90197F1F700C00000C8
:103100000E942A0580E00E94C40580FF04C00E943E
:1031100076180C94E82308950C9478180E94D8141B
:10312000811102C00E9480150E94E3148093BC02AA
:103130000E94EB1490930103809300030E948C186B
:103140000E94E714682F70E080E090E00E94DD0E9E
:1031500060912402709125028091260290912702AD
:103160000C94150F0E9470260E94C8150C947C26A2
:103170000E9480260E946D160C949E260E94392380
:103180000E9457260E94B2150E94B2180E94B818D9
:103190000E94BC15FBCF8091C50280FF06C06091E4
:1031A000080170E0660F771F26C081FF04C06091A0
:1031B000080184E005C082FF07C06091080188E033
:1031C000689FB001112417C09091C4029923D1F0D7
:1031D00060910701961788F72091080188E0289FE1
:1031E00090011124929FA001939F500D112470E033
:1031F000CA010E94DA2B6038710540F4611571052F
:1032000019F406C068E070E0862F08958FE70895EE
:1032100081E008958091C50280FF08C0609105019A
:1032200070E0759567957595679521C081FF06C01B
:103230006091050170E07595679519C082FF04C023
:103240006091050170E010C09091C302992399F03C
:10325000609104019617A0F780910501899FC00134
:10326000112470E00E94DA2B6038710540F461157A
:10327000710519F406C061E070E0862F08958FE7AC
:10328000089581E008958D3E21F40E94CB18819528
:1032900004C08E3E29F40E94CB188093C902089581
:1032A0008F3E21F40E94CB18819504C0803F29F401
:1032B0000E94CB188093C8020895893F19F40E9498
:1032C0000A1905C08A3F31F40E940A19819580933A
:1032D000CA0208958B3F21F40E940A19819504C007
:1032E0008C3F29F40E940A198093CB0208959FE035
:1032F000980F983078F421E030E0A90102C0440F23
:10330000551F9A95E2F7CA019091C702892B8093C5
:10331000C70208958D3F21F48091C50281600BC0E2
:103320008E3F21F48091C502826005C08F3F29F451
:103330008091C50284608093C50208958D3E39F462
:103340009091C90297FF35C01092C90259C08E3EB4
:1033500029F49091C9021916BCF32BC09091C802B0
:103360008F3E29F497FF25C01092C80249C0803FC4
:1033700019F41916CCF31DC09091CA02893F29F4A3
:103380001916BCF41092CA023BC08A3F19F497FF89
:1033900010C0F8CF8B3F39F49091CB0297FF09C052
:1033A0001092CB022DC08C3F21F49091CB021916C4
:1033B000BCF39FE0980F983080F421E030E0A90141
:1033C00002C0440F551F9A95E2F7CA01809590916B
:1033D000C70289238093C70213C08D3F21F48091D7
:1033E000C5028E7F0BC08E3F21F48091C5028D7F78
:1033F00005C08F3F29F48091C5028B7F8093C50261
:103400008091C802811106C08091C902811102C059
:103410001092C4028091CA02811106C08091CB0231
:10342000811102C01092C30208958091BC0283FFF3
:103430007EC086E494E00E94FC038091C7021F9244
:103440008F9381E494E09F938F930E9495048FE380
:1034500094E00E94FC038091C802282F082E000CE3
:10346000330B3F938F938CE394E09F938F930E9451
:1034700095048AE394E00E94FC038091C902282FFE
:10348000082E000C330B3F938F9387E394E09F93B8
:103490008F930E94950485E394E00E94FC03809141
:1034A000CA02282F082E000C330B3F938F9382E320
:1034B00094E09F938F930E94950480E394E00E9490
:1034C000FC038091CB02282F082E000C330B3F9376
:1034D0008F938DE294E09F938F930E9495048AE2EC
:1034E00094E00E94FC038091C4021F928F9387E2B4
:1034F00094E09F938F930E94950485E294E00E944C
:10350000FC038091C5021F928F9382E294E09F9307
:103510008F930E9495048FE194E00E94FC038DB785
:103520009EB74C960FB6F8949EBF0FBE8DBF0E94FB
:103530009B232091C802211104C02091C90222239B
:1035400021F09093C2028093C1022091CA022111FE
:1035500004C02091CB02222321F09093C0028093DB
:10356000BF0286EC92E00C94E721EF92FF920F935A
:103570001F93CF93DF9300D000D000D0CDB7DEB73C
:1035800086E0E6ECF2E0DE01119601900D928A955C
:10359000E1F7E090C802F090C9020091CA021091D0
:1035A000CB021092C8021092C9021092CA02109265
:1035B000CB02E11003C0FF2009F45DC08091C1027D
:1035C0009091C2020E94B323AC019091C40299234E
:1035D00039F02091090130E02417350758F04BC02D
:1035E0002091BE028AE0289F9001112424173507FC
:1035F00018F041C09F3F19F09F5F9093C402EE20E6
:1036000061F00E94CB181E1414F09FEF01C091E0EE
:10361000989F902D11249093C802FF2061F00E9482
:10362000CB181F1414F09FEF01C091E0989F902DCC
:1036300011249093C9023091C8023323E1F0209104
:10364000C9022223C1F045EB3403C00111249923A0
:1036500019F09093C80203C081E08093C80235EB53
:103660002303C0011124992319F09093C90203C0C8
:1036700081E08093C902011103C0112309F45DC0E8
:103680008091BF029091C0020E94B323AC0190913F
:10369000C302992339F02091060130E02417350741
:1036A00058F04BC02091BD028AE0289F9001112460
:1036B0002417350718F041C09F3F19F09F5F909382
:1036C000C302002361F00E940A19101614F09FEF44
:1036D00001C091E0989F902D11249093CA0211236C
:1036E00061F00E940A19111614F09FEF01C091E0D9
:1036F000989F902D11249093CB023091CA023323CE
:10370000E1F02091CB022223C1F045EB3403C0014C
:103710001124992319F09093CA0203C081E0809389
:10372000CA0235EB2303C0011124992319F09093A9
:10373000CB0203C081E08093CB028091C80281114B
:103740000BC08091C902811107C08091CA0281110A
:1037500003C08091CB0281110E94151AEB82FC827A
:103760000D831E8386E0FE013196A6ECB2E0019047
:103770000D928A95E1F726960FB6F894DEBF0FBE3C
:10378000CDBFDF91CF911F910F91FF90EF900895E2
:10379000E6ECF2E086E0DF011D928A95E9F71092EF
:1037A000C4021092C3021092C502089586E090E010
:1037B0000C943D2C682F86E090E00C944B2C80916B
:1037C000020384708961809302030C94DA1B0E94C7
:1037D000D814811104C00E9480150E94DF1B0E9432
:1037E000D61B80930203282F26952695269530E038
:1037F0002430310524F08770886180930203809122
:10380000020380FF04C086958695869501C080E0FE
:103810000C94641D20910203822F869586958695CF
:10382000482F50E04330510554F48F5F982F990F83
:10383000990F990F822F8770892B809302038091B3
:1038400002038160809302030E94DA1B8091BC0214
:1038500080FF11C0809102038695869586951F9200
:103860008F9380ED94E09F938F930E9495040F9027
:103870000F900F900F908091020386958695869504
:103880000C94641D80910203982F969596959695B9
:10389000A1F0915E990F990F990F8770892B8093F2
:1038A0000203887F91E009F490E08091020390FB8D
:1038B00080F9809302030E94DA1B8091BC0280FF92
:1038C00011C0809102038695869586951F928F93ED
:1038D00088EB94E09F938F930E9495040F900F9034
:1038E0000F900F90809102038695869586950C9493
:1038F000641D8091020380FD1FC0816080930203DC
:10390000813019F489E080930203809102030E94C0
:10391000DA1B8091BC0280FF08C080E994E09F938D
:103920008F930E9495040F900F90809102038695CB
:10393000869586950C94641D08958091020380FFFE
:1039400014C08E7F809302030E94DA1B8091BC0218
:1039500080FF08C08DE794E09F938F930E949504A9
:103960000F900F9080E00C94641D0895CF93C09148
:103970000203C1708091BC0280FF0CC01F92CF93E4
:1039800082EA94E09F938F930E9495040F900F908A
:103990000F900F90CC2319F0CF910C949D1CCF91D8
:1039A0000C94791C90910203892F869586958695B3
:1039B0008F5F8F719770843038F4880F880F880F6D
:1039C000892B8093020302C090930203809102032B
:1039D000887F91E009F490E08091020390FB80F9E8
:1039E000809302030E94DA1B8091BC0280FF11C009
:1039F000809102038695869586951F928F9389E61E
:103A000094E09F938F930E9495040F900F900F90D6
:103A10000F90809102038695869586950C94641D7F
:103A2000843008F083E0909102039770282F220FD2
:103A3000220F220F922B90930203987F21E009F42A
:103A400020E09091020320FB90F9909302030C94E4
:103A5000641D0E94101D809102030C94DA1B9C01CE
:103A6000FB018281882349F12E3BFCE53F07C9F029
:103A700040F42C3BECE53E0769F02D3B3C4561F002
:103A80000895203C9CE5390791F070F0213C3C45BD
:103A900089F0089583E001C080E00E94291D80E044
:103AA00008950E94421CFBCF0E940A1CF8CF0E947E
:103AB000B61CF5CF0E94D21CF2CF81E00895279A60
:103AC0002F9808952F9808958F929F92AF92BF924A
:103AD000CF92DF92EF92FF920F931F93CF93DF93DA
:103AE000C82F843050F4811109C080918000877FF5
:103AF000809380000E94621D06C0C3E08091800018
:103B0000886080938000A0918600B09187002C2F60
:103B100030E00E94162C23E030E040E050E00E94AC
:103B2000EE2B0027122F232F342F012F122F232F9C
:103B3000332780918600909187006CE070E00E94AE
:103B4000C62B6017710730F0C80169E070E00E9471
:103B5000C62B5EC08091860090918700E090860021
:103B6000F0908700E0918600F0918700C6E0D0E0F9
:103B7000BE010E94C62B060F171F211D311D4801D3
:103B8000590185E0880C991CAA1CBB1C8A95D1F7A9
:103B9000C701BE010E94C62B6F01E12CF12CA701C9
:103BA0009601260F371F411D511DC501B4010E940A
:103BB000EE2B69017A01E0918600F0918700CA013D
:103BC000B9010E94AA2B9B01AC01DF010E94252CA8
:103BD0009B01AC01C701B6010E94AA2BDC01CB01FD
:103BE0002FE0B695A795979587952A95D1F70091DF
:103BF00086001091870020E030E0081719072A0797
:103C00003B0728F46091860070918700CB01BC01CE
:103C100070938D0060938C00DF91CF911F910F9175
:103C2000FF90EF90DF90CF90BF90AF909F908F90DC
:103C3000089508950E945F1D8AE08093800089E1C5
:103C4000809381008FEF9FEF909387008093860091
:103C50000C94E71BCF93DF9397FF0DC0FB012281EC
:103C6000222349F0EC010E94911ECE019F770E9411
:103C7000041F0E94DE1E81E0DF91CF910895909194
:103C80000403923069F48A3040F490E009966AE0C7
:103C900070E00E94DA2B875A01C086500C94D30B37
:103CA0000C94E1098CE090E00E943D2C90E0A0E0B3
:103CB000B0E08093040390930503A0930603B093B0
:103CC00007038091BC0280FF0EC0809104031F9205
:103CD0008F9387E095E09F938F930E9495040F90B8
:103CE0000F900F900F900895609104038CE090E086
:103CF0000C944B2C809304030E94741E8091BC0290
:103D000080FF0EC0809104031F928F9388EE94E091
:103D10009F938F930E9495040F900F900F900F9098
:103D200008950E948F2186958170809309030E94D7
:103D30008F2181708093030380910403813039F4D3
:103D400080910903882319F089E30E94D30B0E9414
:103D5000D813809308030E94EB13809104038130F1
:103D600071F048F0823081F0843009F586EE0E94CF
:103D7000D30B88E11AC082EE0E94AA0A18C088E11B
:103D800093E00E94790813C080910303811103C05E
:103D900083E50E94D30B82EE0E94AA0A8FE39CE97E
:103DA0000197F1F700C0000087E50E94D30B8FE375
:103DB0009CE90197F1F700C0000008958091040389
:103DC000813059F030F0823089F08430C9F488E2D3
:103DD00015C082EE0E94540B13C08CE20E94D30BDC
:103DE00080910903882361F089E308C082EE0E9474
:103DF000540B80910303811103C083E50E94D30B10
:103E0000809108030C94E8130F931F93CF93DF93D3
:103E10008C01CCE0D0E0C8010C2E02C096958795AD
:103E20000A94E2F78F700E943F1E2497CC3F8FEFD9
:103E3000D80789F7DF91CF911F910F9108950F93C4
:103E40001F93CF93DF93EC018B01FB0182818823C9
:103E500051F00E94D813CE01825E9C4585309105B9
:103E600010F40E947A1EB801CE01DF91CF911F910C
:103E70000F910C942A1ECF93DF93EC01FB018281FA
:103E8000882309F43CC1C430FDE5DF0760F4CB3F73
:103E90009CE5D90788F49E0122503C452431310528
:103EA00008F02EC109C0C236EDE5DE0729F0C63A9A
:103EB000FDE5DF0709F024C10E94EB149093010394
:103EC00080930003C1318CE5D80709F4C6C008F01F
:103ED00042C0C930ECE5DE0709F49BC000F5C530EF
:103EE0008CE5D80709F485C078F4C330ECE5DE072B
:103EF00009F478C008F07AC0C230DC4509F0F5C09A
:103F0000809100038160EFC0C7309CE5D90709F4B8
:103F100078C008F07AC0809100038061E4C0CD30A1
:103F2000FCE5DF0709F487C058F4CB309CE5D907DE
:103F300009F479C008F07BC08091000388606FC0ED
:103F4000CF30FCE5DF0709F480C008F082C0809123
:103F50000003877FC8C0CE3F9CE5D90709F471C034
:103F600000F5C531FCE5DF0709F485C068F4C3310D
:103F70009CE5D90709F475C008F095C00E94850E2C
:103F8000809100038F77AFC0CC3FFCE5DF07A9F13C
:103F900008F054C0CB3FDC4509F0A7C08091010375
:103FA00040C0C230EDE5DE0709F489C058F4C11500
:103FB0008DE5D80709F45AC008F069C08091010363
:103FC00082602FC0C236EDE5DE0709F47CC0C63A38
:103FD000FDE5DF0709F481C0C330DD4509F085C088
:103FE00080E06EC08091000382607DC080910003FC
:103FF00016C080910003886076C0809101038260C2
:104000004FC08091000380626EC080910003806485
:104010006AC00E94850E80910003806864C084603D
:1040200062C081603DC0809100038E7F5CC0809142
:1040300000038D7F58C08091000316C0809101035A
:1040400018C0809101038D7F2BC0809100038F7E6B
:104050004AC0809100038F7D46C0809100038F7B12
:1040600042C080910003877F8B7F3DC08091010318
:104070008D7F8E7F15C08091000382FB222720F95F
:1040800091E0922790FB82F990FB83F92CC08091FC
:104090000103982F909591708E7F892B90FB81F969
:1040A0008093010322C00E94850E8091000387FB4C
:1040B000222720F991E0922790FB87F914C081E034
:1040C0000E94821512C08091000384FB222720F9F0
:1040D00091E0922790FB84F906C080910003982F0D
:1040E000909590FB80F9809300038091000390915C
:1040F00001030E94FC140E94850E80E001C081E053
:10410000DF91CF910895CF93DF9386319C4541F5A0
:10411000EB010E94D813982F8A81209102013091DF
:104120000301882379F09A7A81E009F480E0809392
:10413000CC02911102C069E201C065E3C9010E948D
:10414000D9220AC08091CC02811102C069E201C06B
:1041500065E3C9010E94E4220E941D1480E001C0B1
:1041600081E0DF91CF9108950F931F93CF93DF9359
:10417000C42FD22FFC0182818823C9F04093CF0243
:104180000E949B239093CE028093CD0280E28C0FFD
:10419000883008F057C0C77081E001C0880FCA9509
:1041A000EAF7DF91CF911F910F910C94DC0B809176
:1041B000CF02481330C08091CD029091CE020E9470
:1041C000B323883C910538F510E21D0FCD17B9F0E7
:1041D00080E28C0F883040F4C77081E001C0880F06
:1041E000CA95EAF70E94E30B183028F581E09D2F6D
:1041F000977001C0880F9A95EAF70E94DC0B802F18
:104200000E94D30B1830F0F4D77081E001C0880F02
:10421000DA95EAF70AC080E28C0F883098F4C7700C
:1042200081E001C0880FCA95EAF7DF91CF911F9115
:104230000F910C94E30B802FDF91CF911F910F9181
:104240000C94D30BDF91CF911F910F9108950F9391
:104250009C01CB01243F4CE5340731F188F4293D22
:10426000FCE53F07D9F02A3D4CE5340779F1283DBC
:104270003C45A9F506E221EE41EE68ED7CE52BC058
:10428000263FFCE53F07E1F0A8F0273F3C4539F524
:1042900007E225EE46EE67EF7CE51DC007E225EE5E
:1042A00045EE69ED7CE517C006E221EE40EE64EFD5
:1042B0007CE511C007E225EE44EE65EF7CE50BC01E
:1042C00006E221EE42EE66EF7CE505C008E221E061
:1042D00045EE6AED7CE50E94B42080E008C0FC0158
:1042E0008281882319F01092CF0201C081E00F91E2
:1042F0000895909389018093880108959093D50241
:104300008093D4020895E091D402F091D5023097C1
:1043100021F00190F081E02D099480E008950E9441
:1043200083210895EF92FF921F93CF93DF93FC01B7
:10433000A091D402B091D502109709F442C08091A7
:104340001601882341F08091000387FF04C080811B
:10435000818386E08083EF011296ED91FC911397A3
:10436000CE0109958091BC0282FF2BC080FF04C062
:104370008FE295E00E94FC0318E089E2E82E85E0D8
:10438000F82E8091BC0280FF0BC088811F928F9312
:10439000FF92EF920E9495040F900F900F900F9054
:1043A000115021961111EDCF8091BC0280FF09C000
:1043B00087E295E0DF91CF911F91FF90EF900C94F1
:1043C000FC03DF91CF911F91FF90EF900895E09152
:1043D000D402F091D502309739F022E0DC012C9321
:1043E0000480F581E02D099408952091D202309146
:1043F000D3022817390771F09093D3028093D20229
:10440000E091D402F091D502309721F00680F78137
:10441000E02D099408952091D0023091D1022817FF
:10442000390771F09093D1028093D002E091D402C9
:10443000F091D502309721F00084F185E02D0994A8
:104440000895FC01329680911601882331F0809105
:10445000000387FF02C09EE101C096E080E091501A
:1044600028F021912223D9F38F5FF9CF0895662395
:1044700051F1209116012223E9F02091000327FF3A
:1044800019C0462F4695469546954E31E0F4677023
:1044900021E030E002C0220F331F6A95E2F7FC01F1
:1044A000E40FF11D828190E02823392381E0232B42
:1044B00069F409C0FC01329608962191621729F02F
:1044C000E817F907D1F780E0089581E008959C018D
:1044D000FC0132969FEF80E04191461789F09F3FA3
:1044E00019F4411101C0982F8F5F8630A9F79F3FC3
:1044F00039F0F901E90FF11D97FDFA9562830895EE
:1045000008959C012A5F3F4FFC014281461301C080
:104510001282019682179307B9F70895262F2695E0
:10452000269526952E3170F4FC01E20FF11D67707F
:1045300021E030E001C0220F6A95EAF78281282B42
:10454000228308958091BC0280FF0CC01F926F935C
:104550008FE595E09F938F930E9495040F900F90A5
:104560000F900F900895262F2695269526952E318B
:1045700078F4FC01E20FF11D677021E030E001C02A
:10458000220F6A95EAF720958281282322830895D5
:104590008091BC0280FF0CC01F926F9381E495E074
:1045A0009F938F930E9495040F900F900F900F9000
:1045B000089520911601222329F02091000327FD60
:1045C0000C948E220C94672220911601222329F04C
:1045D0002091000327FD0C94B3220C94812220919A
:1045E0001601FC013296222331F08091000387FFEF
:1045F00002C08EE101C086E0DF011D928A95E9F7D5
:10460000089508950C94012383E08093D6020C94BE
:104610000223811102C081E001C082E08093D602B2
:104620000C9402230C94092381E08093D6020C940D
:1046300002230C94142308950C941B230C941C2324
:104640000C941B230C941B23CF930E94D1040E9433
:104650002A050E942023C0E08C2F0E94C405892BCC
:1046600029F4CF5FC630C1F780E001C081E0CF916F
:10467000089508951F920F920FB60F9211248F93F1
:104680009F93AF93BF938091D702811113C0809104
:104690000A0390910B03A0910C03B0910D03419676
:1046A000A11DB11D80930A0390930B03A0930C03EB
:1046B000B0930D03BF91AF919F918F910F900FBE5B
:1046C0000F901F90189580911203843031F10E9451
:1046D0006E091092D70220E488E190E00FB6F894BA
:1046E000A895809360000FBE2093600083B7817F00
:1046F000846083BF83B7816083BF7894889583B7D4
:104700008E7F83BF0FB6F894A89580916000886172
:1047100080936000109260000FBE08950E94850E85
:104720000C94750982E084BD93E095BD9AEF97BD26
:1047300080936E0008952FB7F89480910A039091AA
:104740000B03A0910C03B0910D032FBF08952FB759
:10475000F89460910A0370910B0380910C0390917F
:104760000D032FBF08959C014FB7F89480910A0361
:1047700090910B03A0910C03B0910D034FBF821BCE
:10478000930B089578941F920F920FB60F921124F5
:104790008F939F93AF93BF9380910A0390910B03E4
:1047A000A0910C03B0910D030196A11DB11D809342
:1047B0000A0390930B03A0930C03B0930D03BF91D6
:1047C000AF919F918F910F900FBE0F901F901895F2
:1047D00081E08093E00080E28093D8001092C900CD
:1047E0008FE19EE40197F1F700C0000087E090EBB5
:1047F000DC0180931B0390931C03A0931D03B093D3
:104800001E039CE088E10FB6F894A89580936000A1
:104810000FBE90936000FFCF8091FE02089508952F
:1048200022E02093E9002FEF3091E800215035FD80
:1048300006C035ED3A95F1F700002111F5CF209132
:10484000E80025FF0BC040E050E066E070E00E9409
:104850000D278091E8008E778093E8000895CF932C
:10486000DF9320911601222339F02091000327FFC6
:1048700003C060E222E002C068E021E02093E9008A
:104880002FEF3091E800215035FD06C035ED3A9507
:10489000F1F700002111F5CF2091E80025FF1DC0A0
:1048A000EC0180911601811105C040E050E068E004
:1048B00070E003C070E040E050E0CE010E940D27A0
:1048C0008091E8008E778093E80080E2FE01AEEDF3
:1048D000B2E001900D928A95E1F7DF91CF910895B2
:1048E0008093DA027093DC026093DB028091120302
:1048F000843001F582E08093E9008FEF9091E80029
:10490000815095FD06C095ED9A95F1F70000811153
:10491000F5CF8091E80085FF0DC040E050E063E0F6
:1049200070E08AED92E00E940D278091E8008E777A
:104930008093E8000895BC0184E00C947024BC01CD
:1049400083E00C94702481E995E00E94FC0380913F
:104950001103811109C00E949E280E94FB288091AA
:10496000E20084608093E20008958DE895E00E9463
:10497000FC0310921103089589E895E00E94FC035E
:104980000C94192385E895E00E94FC0360910E03C6
:1049900081E0611101C080E00C94042381E895E07E
:1049A0000E94FC039091120381E0943009F080E0B2
:1049B00060910E030C9409232091D9022F5F822F5E
:1049C00062E30E94BA2B992319F02093D90208952B
:1049D0001092D9028091DD02882371F18091120337
:1049E000843041F58091E9008F702091EC00922F86
:1049F000917020FD90E8892B93E09093E9009091CD
:104A0000EB0090FF14C09091EE0097FF10C09091C2
:104A1000E80095FF03C01092F100F9CF9091E800F3
:104A200090FF05C09091E8009E779093E8008F700A
:104A30008093E9001092DD02089542E061EC81E08C
:104A40000E94172842E261EC82E00E94172842E2AD
:104A500061EC83E00E9417289091120381E094306A
:104A600009F080E060910E030C94122380911403EE
:104A7000833009F461C030F4813071F0823009F480
:104A80009AC008958A3009F486C08B3009F46CC04E
:104A9000893009F0A8C020C080911303813A09F041
:104AA000A2C08091E800877F8093E800809117037F
:104AB00090911803892B21F460E28EED92E003C0FF
:104AC00060E080E090E070E00E9458278091E8006C
:104AD0008B778093E800089580911303813209F069
:104AE00082C08091170390911803029708F07BC051
:104AF0008091E800877F8093E8008091E80082FD44
:104B000005C0809112038111F8CF6DC02091F30090
:104B10008091F20090E0922B029731F48091F100A5
:104B2000813011F0863021F48091F1008093FE02F3
:104B30008091E8008B7753C080911303813A09F08C
:104B400052C08091170390911803892B09F04BC034
:104B50008091E800877F8093E8008091E80080FFE3
:104B6000FCCF8091160136C0809113038132D9F5B4
:104B70008091170390911803892BA9F58091E80083
:104B8000877F8093E8000E944C28809115038093D2
:104B900016010C94850E80911303813221F58091CA
:104BA000E800877F8093E8000E944C2880911603DC
:104BB0008093FF02089580911303813AA1F48091BC
:104BC000E800877F8093E8008091E80080FFFCCFB9
:104BD0008091FF028093F1008091E8008E778093AE
:104BE000E8000C944C2808959FB7F8941092DD02C9
:104BF0009FBF90911203943009F057C09091E90043
:104C00009F703091EC00232F217030FD20E8922B13
:104C100023E02093E9002091EB0020FF43C0209186
:104C2000EE0027FF3FC02091D802222321F02091DF
:104C3000E80025FF37C01092D80226E03091E80046
:104C400035FD15C030911203343061F53091EB0021
:104C500035FD28C0215021F481E08093D80222C084
:104C6000EFE9FFE03197F1F700C00000E7CF809354
:104C7000F1008091E80085FD0AC08091E80080FF86
:104C8000FCCF8091E8008E778093E80006C08FB754
:104C9000F89421E02093DD028FBF9F709093E9008C
:104CA00080E008959F709093E9008FEF089584B796
:104CB000877F84BF0FB6F894A895809160008861C3
:104CC00080936000109260000FBE90E080E80FB605
:104CD000F89480936100909361000FBE0C941423AC
:104CE0000E949E280E94FB28E2EEF0E08081846012
:104CF000808378940C948F2B8AE091E00C947E2131
:104D0000809112038530C9F48DE795E00E94FC0381
:104D100080911203853079F40E94632380911003FF
:104D20008823B1F30E942423882391F30E94F7265D
:104D30000E94850EEDCF0C948E23089508950C9457
:104D4000A126292F332723303105C9F060F4213003
:104D5000310581F02230310509F041C08BE590E04A
:104D600027EE35E040C021323105E1F02232310535
:104D700031F135C082E190E022E436E034C0992779
:104D80008130910549F028F0029749F5E5E9F5E011
:104D900005C0E3EEF5E002C0EFEBF5E0849190E0B2
:104DA0009F0121C063307105D0F4660F771FFB01AE
:104DB000EE57FE4F2081318189E090E014C06330CE
:104DC000710568F4FB01EE0FFF1FE458FE4F2081D0
:104DD0003181FB01E758FE4F808190E004C080E004
:104DE00090E020E030E0FA0131832083089580E1F3
:104DF00089BD82E189BD09B400FEFDCF8091D80054
:104E00008F7D8093D8008091E00082608093E000E5
:104E10008091E00081FDFCCF0895CF92DF92EF9268
:104E2000FF920F931F93CF93DF93EC018B017A01D5
:104E30000E946B28811133C0E114F10439F0F701AD
:104E400080819181081B190BC80FD91FC12CD12C4F
:104E50000115110519F18091E80085FD16C08091BA
:104E6000E8008E778093E800E114F10449F0F7013F
:104E700080819181C80ED91ED182C08285E00FC089
:104E80000E946B28882321F30AC089918093F10046
:104E900001501109FFEFCF1ADF0ADACF80E0DF916E
:104EA000CF911F910F91FF90EF90DF90CF900895D9
:104EB0002091190330911A032617370748F061151E
:104EC000710539F42091E8002E772093E80001C0A5
:104ED000B901FC0120E06115710579F1809112039F
:104EE0008823F1F18530F1F18091E80083FD3CC029
:104EF0008091E80082FD2EC08091E80080FFEBCF1A
:104F00002091F3008091F20090E0922B61157105E1
:104F100051F08830910538F421912093F1006150CF
:104F200071090196F3CF21E0089709F020E0809104
:104F3000E8008E778093E800CECF2111CFCF0AC052
:104F400080911203882361F0853061F08091E80040
:104F500083FD0AC08091E80082FFF2CF80E00895CF
:104F600082E0089583E0089581E008952091190377
:104F700030911A032617370748F06115710539F487
:104F80002091E8002E772093E80001C0B901FC01D0
:104F900020E06115710591F180911203882309F4D5
:104FA00040C0853009F43FC08091E80083FD3DC0DA
:104FB0008091E80082FD2FC08091E80080FFE9CF5A
:104FC0002091F3008091F20090E0922B6115710521
:104FD00059F08830910540F424912093F1003196E6
:104FE000615071090196F2CF21E0089709F020E0A5
:104FF0008091E8008E778093E800CBCF2111CCCF51
:105000000AC080911203882361F0853061F080919D
:10501000E80083FD0AC08091E80082FFF2CF80E0C3
:10502000089582E0089583E0089581E00895982F1F
:10503000973068F59093E900981739F07091EC007B
:105040002091ED005091F00003C0242F762F50E006
:1050500021FD02C09F5FECCF3091EB003E7F30938B
:10506000EB003091ED003D7F3093ED003091EB008F
:1050700031603093EB007093EC002093ED0050937F
:10508000F0002091EE0027FDE5CF80E008958F70BD
:105090008093E90081E008958091130387FF11C098
:1050A0008091E80082FD05C0809112038111F8CF44
:1050B00011C08091E8008B770BC080911203882388
:1050C00049F08091E80080FFF8CF8091E8008E776A
:1050D0008093E80008952091E4003091E50095E682
:1050E0004091EC00842F817040FF23C08091E80044
:1050F00080FD1DC080911203882399F0853099F0BE
:105100008091EB0085FD11C04091E4005091E500D5
:105110002417350729F3915011F09A01E1CF84E06B
:10512000089582E0089583E0089581E0089580E085
:1051300008954091E80042FFDDCF08950E940C29B8
:105140000E941429E0EEF0E0808181608083E8ED28
:10515000F0E080818F77808319BCA7EDB0E08C915F
:105160008E7F8C9380818F7E8083109211030895AF
:105170000F931F93CF93DF930E940C290E94142951
:10518000C8EDD0E088818F778883888180688883A4
:1051900088818F7D888319BC1092120310920E03B0
:1051A0001092100310920F0300EE10E0F8018081BE
:1051B0008B7F808388818160888342E060E080E02B
:1051C0000E941728E1EEF0E080818E7F8083E2EE7E
:1051D000F0E0808181608083808188608083F80135
:1051E00080818E7F8083888180618883DF91CF91E9
:1051F0001F910F910895E8EDF0E080818F7E80830C
:10520000E7EDF0E080818160808384E082BF81E00F
:10521000809311030C94B828E8EDF0E080818E7F34
:1052200080831092E20008951092DA001092E1005B
:1052300008951F920F920FB60F9211242F933F9350
:105240004F935F936F937F938F939F93AF93BF938E
:10525000EF93FF938091E10082FF0BC08091E20009
:1052600082FF07C08091E1008B7F8093E1000E9464
:10527000DC248091DA0080FF1FC08091D80080FF7D
:105280001BC08091DA008E7F8093DA008091D90074
:1052900080FF0DC080E189BD82E189BD09B400FEB7
:1052A000FDCF81E0809312030E94A32405C019BCA6
:1052B000109212030E94B5248091E10080FF19C072
:1052C0008091E20080FF15C08091E2008E7F809384
:1052D000E2008091E20080618093E2008091D8003A
:1052E00080628093D80019BC85E0809312030E94ED
:1052F000C2248091E10084FF30C08091E20084FFED
:105300002CC080E189BD82E189BD09B400FEFDCFDA
:105310008091D8008F7D8093D8008091E1008F7EAE
:105320008093E1008091E2008F7E8093E200809183
:10533000E20081608093E20080910E03882311F0E7
:1053400084E007C08091E30087FD02C081E001C0D6
:1053500083E0809312030E94CE248091E10083FFBA
:1053600029C08091E20083FF25C08091E100877F02
:105370008093E10082E08093120310920E038091EB
:10538000E1008E7F8093E1008091E2008E7F809328
:10539000E2008091E20080618093E20042E060E000
:1053A00080E00E9417288091F00088608093F000D0
:1053B0000E94BC24FF91EF91BF91AF919F918F917B
:1053C0007F916F915F914F913F912F910F900FBE01
:1053D0000F901F9018951F920F920FB60F921124E5
:1053E0002F933F934F935F936F937F938F939F93ED
:1053F000AF93BF93CF93DF93EF93FF93C091E900F7
:10540000CF708091EC00D82FD17080FDD0E8109241
:10541000E9008091F000877F8093F00078940E94EB
:105420002F2A1092E9008091F00088608093F000AC
:10543000CD2BCF70C093E900FF91EF91DF91CF9119
:10544000BF91AF919F918F917F916F915F914F919C
:105450003F912F910F900FBE0F901F9018951F93A3
:10546000CF93DF93CDB7DEB7AA970FB6F894DEBF20
:105470000FBECDBFE3E1F3E08091F100819323E023
:10548000EB31F207C9F70E9436258091E80083FFCF
:105490002EC18091130390911403492F50E04A309C
:1054A000510508F024C1FA01EE59FF4F0C94102C5D
:1054B000803821F0823809F01AC108C080910F03AA
:1054C00090911003992389F082600FC08091170397
:1054D0008F70873008F00BC18093E9008091EB005A
:1054E00085FB882780F91092E9009091E800977F6A
:1054F0009093E8008093F1001092F100D1C0282F22
:105500002D7F09F0F4C0882319F0823061F0EFC0DC
:1055100080911503813009F0EAC0933009F080E0F2
:10552000809310032EC08091150381112AC08091B1
:1055300017038F702FEF280F263008F0D8C0809304
:10554000E9002091EB0020FF1CC0933021F48091F2
:10555000EB00806214C09091EB0090619093EB009F
:1055600021E030E0A90102C0440F551F8A95E2F7FF
:105570004093EA001092EA008091EB0088608093EB
:10558000EB001092E9008091E800877F8093E800AB
:105590000E944C28ACC08111AAC0109115031F773E
:1055A0008091E3008078812B8093E3008091E80074
:1055B000877F8093E8000E944C288091E80080FF5C
:1055C000FCCF8091E30080688093E300111102C05A
:1055D00082E001C083E08093120389C0805882304A
:1055E00008F085C080911503909116038C3D53E01F
:1055F000950779F583E08A838AE289834FB7F89427
:10560000DE01139620E03EE051E2E32FF0E05093FC
:105610005700E49120FF03C0E295EF703F5FEF7009
:105620008E2F90E0EA3010F0C79601C0C0968D939F
:105630009D932F5F243149F74FBF8091E800877F0A
:105640008093E8006AE270E0CE0101960E9458273C
:1056500016C06091170370911803AE014F5F5F4F42
:105660000E949F26BC01892B09F441C09091E8005B
:10567000977F9093E80089819A810E94B627809154
:10568000E8008B778093E80032C0803881F5809104
:10569000E800877F8093E80080910E038093F100FB
:1056A0008091E8008E7772CF811121C0809115031F
:1056B0009091160399270297D4F48091E800877F90
:1056C0008093E8008091150380930E030E944C287C
:1056D00080910E03811106C08091E30087FD02C016
:1056E00081E001C084E0809312030E941D25809117
:1056F000E80083FF0AC08091E800877F8093E8007C
:105700008091EB0080628093EB00AA960FB6F8942C
:10571000DEBF0FBECDBFDF91CF911F910895CF9314
:10572000809112038823A1F0C091E900CF7090917D
:10573000EC00892F817090FD80E8C82B1092E90061
:105740008091E80083FD0E942F2ACF70C093E9006A
:10575000CF910895DB018F939F930E94252CBF91D9
:10576000AF91A29F800D911DA39F900DB29F900DB0
:1057700011240895991B79E004C0991F961708F029
:10578000961B881F7A95C9F780950895AA1BBB1BA5
:1057900051E107C0AA1FBB1FA617B70710F0A61B31
:1057A000B70B881F991F5A95A9F780959095BC0152
:1057B000CD01089597FB072E16F4009407D077FDCE
:1057C00009D00E94C62B07FC05D03EF49095819528
:1057D0009F4F0895709561957F4F0895A1E21A2E0D
:1057E000AA1BBB1BFD010DC0AA1FBB1FEE1FFF1F85
:1057F000A217B307E407F50720F0A21BB30BE40BD5
:10580000F50B661F771F881F991F1A9469F760951B
:105810007095809590959B01AC01BD01CF010895D5
:10582000EE0FFF1F0590F491E02D0994A29FB001A7
:10583000B39FC001A39F700D811D1124911DB29FC4
:10584000700D811D1124911D08950E94162CA59F95
:10585000900DB49F900DA49F800D911D112408956B
:10586000FB01DC0104C08D910190801921F44150AD
:105870005040C8F7881B990B0895F999FECF92BD47
:1058800081BDF89A992780B50895A8E1B0E042E07B
:1058900050E00C94712C262FF999FECF92BD81BD5A
:1058A000F89A019700B4021639F01FBA20BD0FB65E
:1058B000F894FA9AF99A0FBE08950396272F0E943A
:1058C0004C2C0E944B2C252F0E944C2C242F0C94E6
:1058D0004C2C0196272F0E944C2C0C944B2CDC0155
:1058E000CB01FC01F999FECF06C0F2BDE1BDF89AEB
:1058F000319600B40D9241505040B8F70895F89495
:02590000FFCFD7
:10590200C80086022808503C07140C242F241024B7
:105912009F249B240F2401E200E900EA00B500B6AF
:1059220000B700CD008301CC008A019201940121CD
:1059320002230224022502260227022A02B300B40D
:10594200006F007000818283E200E900EA00B50086
:10595200B600B700CD008301CC008A019201940108
:105962002102230224022502260227022A02B30070
:10597200B4006F00700081828340B6222C07760645
:085982005406F90512062B067C
:00000001FF
