:100000000C9484030C94CB030C94CB030C94CB037F
:100010000C94CB030C94CB030C94CB030C94CB0328
:100020000C94CB030C94CB030C944A290C941C2AFB
:100030000C940A220C94CB030C94CB030C94CB03AA
:100040000C94CB030C94CB030C94CB030C94CB03F8
:100050000C94CB030C9463220C94CB030C94CB0331
:100060000C94CB030C94CB030C94CB030C94CB03D8
:100070000C94CB030C94CB030C94CB030C94CB03C8
:100080000C94CB030C94CB030C94CB030C94CB03B8
:100090000C94CB030C94CB030C94CB030C94CB03A8
:1000A0000C94CB030C94CB030C94CB033E173E175C
:1000B00070177017B617D417F418F418DF177418E0
:1000C00085188518E418F418F418ED18A219A21967
:1000D000B419B419AB19B419B419B419A219A219E5
:1000E000B019B419B419B019892AB02AA82BB02AAA
:1000F000A82BFC2A1F2BA82B762B852B0A0025303A
:10010000313662003A200025303258000A722F63DF
:100110002030313233343536373839414243444563
:10012000460A006D63703233303137206465617484
:100130007461636865642121210A006D6370323344
:100140003031372061747461636865642121210A4C
:100150000029001E001F0020002100220050004F37
:10016000002300240025002600270038002B00343F
:10017000003600370013001C002A004C0009000A5A
:1001800000060015000F002E00E100040012000818
:100190000018000C000000000007000B0017001101
:1001A000001600E5003100330014000D000E001BA6
:1001B000002F003000050010001A0019001D002D4E
:1001C00000E300350065004600E20000000000008A
:1001D000000000E6005000520051004F0000002CCB
:1001E000002B00E0004D0001514A004B00E4004E9E
:1001F00000E3002A0028000000005C3A003B003CBD
:10020000003D003E003F00400041004200430044EA
:10021000004500560001000100010001000100013D
:100220000001000100010001005F00600061002E7C
:1002300002010001000100010001000100000000B6
:1002400000010001005C005D005E0055000100013E
:100250000001000100010001000100010001000196
:100260000059005A005B0054000100010001000128
:100270000001000000000000000000010001006219
:10028000006300670000000100010001000100019F
:100290000001000100010001000100010001000057
:1002A0000044454255473A2064697361626C656455
:1002B0002E0A0044454255473A20656E61626C65DE
:1002C000642E0A0000000000000000002A2B280015
:1002D00000000000000000000000000000000029F5
:1002E000000000002C1E3420212224342627252E35
:1002F000362D3738271E1F2021222324252633336D
:10030000362E37381F0405060708090A0B0C0D0E98
:100310000F101112131415161718191A1B1C1D2F64
:100320003130232D350405060708090A0B0C0D0E84
:100330000F101112131415161718191A1B1C1D2F44
:100340003130354C000000000000000000000000CB
:10035000000000000000000000000000000000009D
:1003600000000000000000007E0F00D4FFFFFFC768
:1003700000000078290A002575002F002575005D12
:10038000280025640020002564002000256400204A
:10039000002564007C0025303258006D6F75736550
:1003A0006B6579205B62746E7C782079207620689A
:1003B0005D287265702F61636C293A205B00626171
:1003C000636B6C6967687420737465703A20257577
:1003D0000A006261636B6C696768742064697361A9
:1003E000626C650A006261636B6C696768742065A2
:1003F0006E61626C650A006261636B6C6967687448
:1004000020746F67676C653A2025750A0062616326
:100410006B6C696768742064656372656173653AC3
:100420002025750A006261636B6C696768742069D6
:100430006E6372656173653A2025750A00556E69B1
:10044000636F646520696E707574206D6F646520DC
:1004500073657420746F3A2025750A00556E6963C0
:100460006F646520696E707574206D6F64652069B6
:100470006E697420746F3A2025750A000A002530D1
:10048000325820006B6579626F6172645F726570CB
:100490006F72743A20000A0025303258006B65797B
:1004A000626F6172645F7365745F6C65643A2000AB
:1004B00064656C5F6B65795F6269743A2063616E35
:1004C00027742064656C3A20253032580A00616434
:1004D000645F6B65795F6269743A2063616E27744B
:1004E000206164643A20253032580A00646F6E65DA
:1004F0002E0A00626F6F746D6167696320736361B8
:100500006E3A202E2E2E20005B735D004B657962C3
:100510006F6172642073746172742E0A005B575DA0
:10052000005B535D005B525D005B445D005B435DBF
:100530000028034500720067006F0044006F0078D8
:10054000002000370036002000220048006F0074B1
:100550000044006F00780022000000220341006C7C
:1005600000700061006300610020004B00650079AD
:100570000062006F006100720064007300000004FC
:1005800003090409025B00030100A0FA090400004A
:1005900001030101000921110100012240000705AA
:1005A000810308000A090401000103000000092179
:1005B0001101000122B6000705820320000A090488
:1005C00002000203000000092111010001222200A3
:1005D0000705830320000107050303200001120122
:1005E0001001000000084B41010001000102000160
:1005F0000631FF0974A1010975150026FF00952039
:10060000750881020976150026FF0095207508916E
:1006100002C005010902A10185020901A100050925
:1006200019012908150025019508750181020501A8
:10063000093009311581257F950275088106093831
:100640001581257F950175088106050C0A3802156C
:1006500081257F950175088106C0C005010980A12B
:1006600001850319012AB700150126B70095017508
:10067000108100C0050C0901A101850419012AA0FF
:1006800002150126A002950175108100C00501091F
:1006900006A1018505050719E029E7150025019543
:1006A00008750181020507190029EF15002501953C
:1006B000F07501810205081901290595057501915B
:1006C00002950175039101C005010906A101050705
:1006D00019E029E7150025019508750181029501AA
:1006E000750881010507190029FF150026FF0095EF
:1006F0000675088100050819012905950575019100
:1007000002950175039101C011241FBECFEFDAE0FD
:10071000DEBFCDBF04B603FE27C08091F3029091E7
:10072000F402A091F502B091F6028730904BA740F9
:10073000B04BD1F41092F3021092F4021092F50231
:100740001092F60214BE84B7877F84BF0FB6F89468
:10075000A89580916000886180936000109260008D
:100760000FBEE0E0F8E3099511E0A0E0B1E0EAE4B3
:10077000F9E502C005900D92A438B107D9F722E03F
:10078000A4E8B1E001C01D92A33FB207E1F70E94C7
:100790007D260C94A32C0C940000FF93EF93E09122
:1007A0008401F0918501309709F00995EF91FF914F
:1007B0000895FC018591803011F0EFDFFBCF0895A3
:1007C000FF27E0E230E247FF0CC0419597FF09C0E8
:1007D000EDE26095709580959095611D711D811D6C
:1007E000911D27FF02C0219530E350E2AA27660F32
:1007F000771F881F991FAA1FA41710F0A41B6395C9
:100800005A95A9F7AA3008F0A95FA05DAF93F395B8
:10081000611571058105910541F7ED3211F4EF93F2
:10082000F395F21718F43F93F395FBCF8F91B5DF53
:10083000FA95E1F70895E991F9918591803021F0D9
:10084000853219F0AADFF9CF089520E0E894559198
:100850005532C1F3503311F4689455915A3348F42A
:10086000505390F3220F022E220F220F200D250F3E
:10087000F4CF0EF4219589919991533619F353379A
:1008800029F1533559F1BC0188279927E8945C3642
:1008900021F48991999168945591543639F446EF31
:1008A0007EF077FF0DC08FEF9FEF0AC055374AE00B
:1008B00039F0583540E121F0523642E009F0089510
:1008C000FF93EF937DDFEF91FF91B7CFFF93EF930E
:1008D000FC0181918030B9F360DFFBCFFF93EF9390
:1008E00068DFF1CFDF93CF93CDB7DEB72596A3DFD7
:1008F000CF91DF91089580B38C7080BB81B38C70F1
:1009000081BB0C94DE0684B1807F84B985B18F6091
:1009100085B98AB1837F8AB98BB18C608BB93E98D7
:10092000469A0C94240708950C9493040C94930411
:100930000E947B040E948304EAEDF1E086E891E0E6
:1009400011921192DC012EE01D922150E9F70E96D2
:1009500021E08A3D9207A1F70C947D080E947B0458
:100960000E948304EAEDF1E0118210821382128268
:1009700015821482178216821186108613861286BB
:1009800008952EE0829FC0011124FC01EA57FE4F1A
:1009900020E030E040E050E061E070E09081992399
:1009A00019F09150908309C0CB01022E02C0880F2C
:1009B000991F0A94E2F7482B592B2F5F3F4F31962E
:1009C0002E30310559F7CA010895CF932EE0629F6A
:1009D000B001112420E030E0A1E0B0E0C5E0AD01BD
:1009E000022E02C0440F551F0A94E2F748235923F0
:1009F000452B31F0FB01E20FF31FEA57FE4FC08396
:100A00002F5F3F4F2E30310551F7CF910895CF9290
:100A1000DF92EF92FF920F931F93CF930E940007F4
:100A20008AEDE82E81E0F82EC0E0C33091F038F472
:100A3000C13091F0C23099F4859A8D9812C0C430BB
:100A400029F0C53061F4809A88980BC0819A899802
:100A500008C0849A8C9805C0869A8E9802C0879A9E
:100A60008F988C2F0E94E20680EA8A95F1F78C2FEE
:100A70000E94C1046C010E945A07282F30E0369969
:100A800003C000E810E002C000E010E04B9903C092
:100A900080E091E002C080E090E0082B192B4A9999
:100AA00003C080E092E002C080E090E0082B192BA8
:100AB0001B9903C040E054E002C040E050E0042B2A
:100AC000152B1A9903C060E078E002C060E070E086
:100AD000062B172B199903C080E090E102C080E03B
:100AE00090E0082B192B189903C040E050E202C097
:100AF00040E050E0F70180819181042B152B022BFF
:100B0000132B082719270C211D21082719276C2FC3
:100B1000802791270E94E504F701019311937F013B
:100B20000E947B04CF5FC63009F07FCF0E94890806
:100B300081E0CF911F910F91FF90EF90DF90CF90C8
:100B40000895E82FF0E0EE0FFF1FE652FE4F808180
:100B500091810895CF92DF92EF92FF920F931F93AE
:100B6000CF93DF938CE091E00E94D9038AEDE82EC9
:100B700081E0F82EC0E0D0E097E0C92E91E0D92EB8
:100B80000EEF10E0DF93CF93DF92CF920E947204BA
:100B900084E091E00E94D903F701819191917F0156
:100BA0000E9483099F938F931F930F930E94720457
:100BB0008CEF90E00E94D90321968DB79EB70896DE
:100BC0000FB6F8949EBF0FBE8DBFC630D105D1F6CB
:100BD000DF91CF911F910F91FF90EF90DF90CF9019
:100BE00008951092B9008CE08093B8000895EF92B8
:100BF000FF920F931F93CF93DF93182FEB01109267
:100C0000BC0084EA8093BC000E943C227C0180915D
:100C1000BC0087FD0EC0CF3F8FEFD807C1F30E9405
:100C20003C228E199F098C179D0788F38EEF9FEF4A
:100C30002EC08091B900887F883041F08091B90042
:100C4000887F803119F08FEF9FEF21C01093BB0098
:100C500084E88093BC000E943C228C018091BC00FF
:100C600087FD0CC0CF3F8FEFD807C1F30E943C2215
:100C7000801B910B8C179D0788F3D8CF8091B9000A
:100C8000887F883111F08034F1F680E090E0DF91C8
:100C9000CF911F910F91FF90EF9008950F931F93A5
:100CA000CF93DF93EB018093BB0084E88093BC007B
:100CB0000E943C228C018091BC0087FD0EC0CF3F7A
:100CC0008FEFD807C1F30E943C22801B910B8C1739
:100CD0009D0788F38EEF9FEF0CC02091B900287F0D
:100CE00081E090E0283211F480E090E091958195C8
:100CF0009109DF91CF911F910F9108950F931F9349
:100D0000CF93DF93EC0184E88093BC000E943C22E7
:100D10008C018091BC0087FD0EC0CF3F8FEFD807BC
:100D2000C1F30E943C22801B910B8C179D0788F316
:100D30008EEF9FEF03C08091BB0090E0DF91CF91D9
:100D40001F910F91089584E98093BC00089510923B
:100D5000E6010E94F1052FEF83ED90E321508040E2
:100D60009040E1F700C0000080E008951F93CF930A
:100D7000DF939091E6019923E1F0D62F182F64E6D6
:100D800070E080E40E94F705C82F81110EC064E670
:100D900070E0812F0E944E06C82F811106C064E6C4
:100DA00070E08D2F0E944E06C82F0E94A3068C2F44
:100DB00001C080E0DF91CF911F9108956FE381E042
:100DC0000C94B60661E070E001C0660F8A95EAF700
:100DD000609581E00C94B6066FE780E00E94B6064D
:100DE0006FE782E00E94B6066FE78CE00E94B606CD
:100DF0006FEF81E00E94B60660EC83E10C94B606CA
:100E000064E670E080E40E94F705811110C00E9442
:100E1000A3068091E601811116C081E08093E6016E
:100E20000E94EC060E9490198BE391E00AC0809129
:100E3000E601882341F01092E6010E94901983E2B6
:100E400091E00C94D90308950E94A7060C94000722
:100E50000F931F93CF93DF939091E601992321F194
:100E60008B01D82F64E670E080E40E94F705C82F5C
:100E7000811116C064E670E08D2F0E944E06C82FC7
:100E800081110EC064E670E081E40E94F705C82F6E
:100E9000811106C084E690E00E947E06F8018083FE
:100EA0000E94A3068C2F01C080E0DF91CF911F919B
:100EB0000F910895CF93DF931F92CDB7DEB71982BC
:100EC000BE016F5F7F4F82E10E94280789810F90EA
:100ED000DF91CF910895279A2F98259A2D9A269AD7
:100EE0002E9A249A2C9A259A2D982FEF80E792E03B
:100EF000215080409040E1F700C00000269A2E98D3
:100F00002FEF80E792E0215080409040E1F700C051
:100F10000000249A2C982FEF80E792E02150804027
:100F20009040E1F700C00000259A2D9A2FEF80E74E
:100F300092E0215080409040E1F700C00000269AE6
:100F40002E9A2FEF80E792E0215080409040E1F709
:100F500000C00000249A2C9A279A2F9A259A2D983F
:100F6000269A2E98249A2C982FE782E490E121501B
:100F700080409040E1F700C00000279A2F98259A02
:100F80002D9A269A2E9A249A2C9A08950E946B07DD
:100F90000C9494049C013A9521153F4138F5DC01ED
:100FA000AA27B270AC01442754709C0122273870E4
:100FB00094FF0FC090FF02C080E101C080E0AB2B26
:100FC00009F08062452B09F08064232B69F080686A
:100FD0000BC0892F8170AB2B09F08260452B09F083
:100FE0008460232B09F08860FB0109940895CF9356
:100FF000DF93EC01805E9109089710F0209719F4B7
:101000006DEF76E102C068E679E1CE010E94CA0781
:101010008C2FDF91CF910C94CB15CF93DF93EC0104
:101020000E947516CE01805E9109089710F02097F6
:1010300019F464E077E102C06FE679E1CE01DF9157
:10104000CF910C94CA07CF93DF93EC010E94F7076E
:10105000CE01DF91CF910C940D0881E0089581E0DD
:1010600008950C942F0808950C9433081F93CF9380
:10107000DF9300D000D01F92CDB7DEB749835A83EB
:101080006B833091150289819A81311114C06623D6
:1010900059F0222349F00E94DB1E182F682F898106
:1010A0009A810E94841E03C00E94AF1E182F69817E
:1010B0007A81812F04C00E94DB1E69817A810F90A2
:1010C0000F900F900F900F90DF91CF911F910C9484
:1010D000AA09FC01262F408151816281738184819C
:1010E0000C943608CF93DF93EC0160E00E9469080E
:1010F000BE01DF91CF910C9434080E941020811121
:1011000002C00E94CA200E94AE100E94D3100C940C
:10111000C6070C94960408950E9490190E948B08AB
:101120002FEF84E39CE0215080409040E1F700C025
:1011300000000C9489220F931F93CF93DF93EC014F
:1011400061E00E9469088C01BE010E943108882379
:1011500009F450C0BE01C8010E940F10882309F491
:1011600049C0BE01C8010E948411882309F442C00D
:10117000BE01C8010E9413128823E1F1BE01C8011B
:101180000E9465128823B1F1BE01C8010E9490132C
:10119000882381F18A81882331F101308CE5180799
:1011A00051F00F3D8CE51807D9F001151C45D9F415
:1011B0000E948C081FC08091B202C82FC095C170D8
:1011C000C0FB80F98093B202CC2329F083EB92E03C
:1011D0000E94D9030FC081EA92E00E94D9030BC09C
:1011E0000E94CA2007C0CE01DF91CF911F910F91BD
:1011F0000C942D08C0E08C2FDF91CF911F910F919F
:101200000895DF92EF92FF920F931F93CF93DF9396
:10121000E82FF0E0EC53FD4FD490282F269526952B
:10122000269530E0F901EC59FC4F0491877010E0ED
:10123000082E02C0159507950A94E2F70170112750
:10124000F901EC5AFC4FE490F12C082E02C0F59401
:10125000E7940A94E2F791E0E922FF24F901EC5BBC
:10126000FC4FC491D0E002C0D595C7958A95E2F7AE
:10127000C170DD270115110519F081EE0E94CB1513
:10128000E114F10419F086EE0E94CB158D2D0E9419
:10129000F416EF2819F086EE0E947516012B19F04E
:1012A00081EE0E947516CD2B51F08CE2DF91CF912B
:1012B0001F910F91FF90EF90DF900C94F416DF9147
:1012C000CF911F910F91FF90EF90DF900895982F8D
:1012D0009F709A50963010F0805D01C0895A0C942E
:1012E00001098295982F937344E0949F90011124F3
:1012F0008C7C86958695282B822F8575880F2A7A77
:101300002695822B0895CF93DF93D92F0E947109E0
:10131000C82F8D2F0E9471092C2F30E0322F2227E9
:10132000A901482BCA01DF91CF91089508950C942B
:10133000960981E008950C949909CF93C82F0E94D3
:1013400097098C2F0E949B09CF91089580E090E02F
:101350000895089524E5829FC0011124FC012EE028
:10136000729FE00DF11D1124E60FF11DEE0FFF1F1E
:10137000EF5AFE4F859194910895880F991FFC01B3
:10138000EC58FC4F859194910895CF93DF930E9480
:10139000AA090E94DD0AEC018115904508F041C0C0
:1013A000C11580E4D80708F0D1C0C83ED10510F5BA
:1013B000C03ED10508F0FDC0C83AD10578F4C53A61
:1013C000D10508F0A2C0C130D10509F4F2C008F47B
:1013D000EEC0C430D10508F0ECC0E9C0CF3BD10568
:1013E00008F49BC0C03CD10508F4E1C0CE01805C8C
:1013F00091099EC0C11590E2D90758F4C11521E0AA
:10140000D20708F0D6C0CD3ED10508F4D0C0D065D3
:10141000D0C0C11580E3D80708F08EC0CE019F7000
:1014200087C0C11595E5D90708F043C0C11524E56B
:10143000D20708F0A2C0C11582E5D80708F5C1158A
:1014400091E5D90708F085C0CE0174E0969587959F
:101450007A95E1F783709C2F937021E030E002C011
:10146000220F331F9A95E2F73C68382BCF70C69550
:10147000C69580E2C89FE0011124C22BD32B99C0EE
:101480009E01237033278C2F86958695C115D345F1
:1014900008F064C0C1E0D0E002C0CC0FDD1F2A9587
:1014A000E2F720E2829FC0011124C82BD92BDC680F
:1014B00080C0C11529E5D207A0F4C11588E5D80779
:1014C00008F060C0C11596E5D90708F070C08C2FF0
:1014D0000E94710B8F71C82FD0E0DC2FCC27D06217
:1014E00068C0C1152AE5D20708F451C0CE01905654
:1014F0008115904208F05BC08D2F8F710E94710B97
:10150000DD27D0628F71D82B54C0C55AD0E0CF5B95
:10151000DE4FC881D0E0D0644CC0C85AD0E0CC0FB8
:10152000DD1FCD5EDE4F0990D881C02DD46441C04F
:101530000E94BD09EC013DC0CE019927D3FF03C035
:10154000EC01D86C36C0EC01D06C33C0DF70D06ACF
:1015500030C0DC2FCC27C16FD06A2BC0C1E0D0E0F7
:1015600002C0CC0FDD1F2A95E2F720E2829FC00166
:101570001124C82BD92BDA681CC0DC2FCC27C46FF0
:10158000D06A17C0DC2FCC27C06FD06A12C08C2F56
:101590008F700E94710B94E0D695C7959A95E1F7EC
:1015A000CF70D0E0DC2FCC27D069C82B02C0C0E0C0
:1015B000D0E0CE01DF91CF9108958238910569F195
:1015C000B0F48133910509F46DC048F48932910576
:1015D00009F463C08A32910509F469C0089585331E
:1015E000910509F455C089339105B9F00895833EFA
:1015F000910569F138F4803E9105B1F0823E910584
:1016000009F10895863E9105A9F1873E9105B9F14A
:10161000843E910509F064C023C02091E40220FDBE
:101620004FC021FD4DC008958091E40280FD44C06B
:101630008091E50280FF44C08091E40284FD42C0B5
:1016400083EE4DC08091E40282FF38C0F5CF8091D7
:10165000E40282FD33C08091E50280FD31C0ECCF11
:101660008091E50281FF32C08091E40284FD2AC0AE
:1016700087EE35C08091E40283FF26C0F5CF8091CC
:10168000E40283FD21C08091E50281FD1FC0ECCF03
:101690008091E40285FD1CC01DC08091E40285FD9F
:1016A00019C016C08091E40286FD16C017C0809153
:1016B000E40286FD13C010C089E311C082EE0FC0A2
:1016C00080EE0DC080E00BC086EE09C084EE07C03E
:1016D00089E205C085E303C08AE201C081E390E0AE
:1016E00008959091E40292FF0DC0282F28712830B0
:1016F00019F4877F846006C0282F2471243011F4E8
:101700008B7F886093FF0DC0282F2871283119F432
:10171000877E846106C0282F2471243111F48B7ECA
:1017200088612091E50220FF0DC0382F38713830D4
:1017300019F4877F816006C0382F3171313011F480
:101740008E7F886021FF0DC0282F2871283119F461
:10175000877E816106C0282F2171213111F48E7E90
:10176000886194FD877E08958091EF0180FF0BC012
:101770006091040185E0689FB0011124759567951B
:10178000759567952BC081FF09C06091040185E0C4
:10179000689FB00111247595679520C082FF07C02E
:1017A0006091040185E0689FB001112417C09091F9
:1017B000EE019923D1F060910301961788F72091EB
:1017C000040185E0289F90011124929FA001939F1E
:1017D000500D112470E0CA010E940B2C6038710575
:1017E00040F46115710519F406C065E070E0862FBC
:1017F00008958FE7089581E008958091EF0180FFBB
:1018000008C06091010170E07595679575956795C1
:1018100021C081FF06C06091010170E07595679558
:1018200019C082FF04C06091010170E010C0909166
:10183000ED01992399F0609100019617A0F780912E
:101840000101899FC001112470E00E940B2C6038B7
:10185000710540F46115710519F406C061E070E08E
:10186000862F08958FE7089581E008958D3E21F435
:101870000E94B40B819504C08E3E29F40E94B40BE3
:101880008093F30108958F3E21F40E94B40B81955B
:1018900004C0803F29F40E94B40B8093F2010895A4
:1018A000893F19F40E94FD0B05C08A3F31F40E9464
:1018B000FD0B81958093F40108958B3F21F40E94E4
:1018C000FD0B819504C08C3F29F40E94FD0B809391
:1018D000F50108959FE0980F983078F421E030E00A
:1018E000A90102C0440F551F9A95E2F7CA019091D1
:1018F000F101892B8093F10108958D3F21F48091AE
:10190000EF0181600BC08E3F21F48091EF01826076
:1019100005C08F3F29F48091EF0184608093EF012F
:1019200008958D3E39F49091F30197FF35C01092E0
:10193000F30159C08E3E29F49091F3011916BCF3BE
:101940002BC09091F2018F3E29F497FF25C0109291
:10195000F20149C0803F19F41916CCF31DC09091D3
:10196000F401893F29F41916BCF41092F4013BC02C
:101970008A3F19F497FF10C0F8CF8B3F39F490914C
:10198000F50197FF09C01092F5012DC08C3F21F49D
:101990009091F5011916BCF39FE0980F983080F4F0
:1019A00021E030E0A90102C0440F551F9A95E2F7EB
:1019B000CA0180959091F10189238093F10113C0B0
:1019C0008D3F21F48091EF018E7F0BC08E3F21F47B
:1019D0008091EF018D7F05C08F3F29F48091EF0149
:1019E0008B7F8093EF018091F201811106C080917D
:1019F000F301811102C01092EE018091F401811176
:101A000006C08091F501811102C01092ED01089588
:101A10008091B20283FF7EC08BE993E00E94D903DC
:101A20008091F1011F928F9386E993E09F938F93AA
:101A30000E94720484E993E00E94D9038091F2012C
:101A4000282F082E000C330B3F938F9381E993E0EE
:101A50009F938F930E9472048FE893E00E94D903B2
:101A60008091F301282F082E000C330B3F938F93A6
:101A70008CE893E09F938F930E9472048AE893E02E
:101A80000E94D9038091F401282F082E000C330BFB
:101A90003F938F9387E893E09F938F930E94720404
:101AA00085E893E00E94D9038091F501282F082E44
:101AB000000C330B3F938F9382E893E09F938F93B7
:101AC0000E9472048FE793E00E94D9038091EE0197
:101AD0001F928F938CE793E09F938F930E947204E1
:101AE0008AE793E00E94D9038091EF011F928F93C0
:101AF00087E793E09F938F930E94720484E793E0BB
:101B00000E94D9038DB79EB74C960FB6F8949EBF2E
:101B10000FBE8DBF0E943C222091F201211104C012
:101B20002091F301222321F09093EC018093EB01AB
:101B30002091F401211104C02091F501222321F00C
:101B40009093EA018093E90180EF91E00C943414C2
:101B5000EF92FF920F931F93CF93DF9300D000D0AB
:101B600000D0CDB7DEB786E0E0EFF1E0DE01119600
:101B700001900D928A95E1F7E090F201F090F30167
:101B80000091F4011091F5011092F2011092F3010D
:101B90001092F4011092F501E11003C0FF2009F446
:101BA0005DC08091EB019091EC010E945422AC0148
:101BB0009091EE01992339F02091050130E024172E
:101BC000350758F04BC02091E8018AE0289F90012A
:101BD00011242417350718F041C09F3F19F09F5F6B
:101BE0009093EE01EE2061F00E94B40B1E1414F0ED
:101BF0009FEF01C091E0989F902D11249093F201E6
:101C0000FF2061F00E94B40B1F1414F09FEF01C07D
:101C100091E0989F902D11249093F3013091F2015F
:101C20003323E1F02091F3012223C1F045EB34038B
:101C3000C0011124992319F09093F20103C081E0AF
:101C40008093F20135EB2303C0011124992319F08D
:101C50009093F30103C081E08093F301011103C06D
:101C6000112309F45DC08091E9019091EA010E947D
:101C70005422AC019091ED01992339F02091020199
:101C800030E02417350758F04BC02091E7018AE077
:101C9000289F900111242417350718F041C09F3F59
:101CA00019F09F5F9093ED01002361F00E94FD0BFE
:101CB000101614F09FEF01C091E0989F902D112411
:101CC0009093F401112361F00E94FD0B111614F0A2
:101CD0009FEF01C091E0989F902D11249093F50102
:101CE0003091F4013323E1F02091F5012223C1F07A
:101CF00045EB3403C0011124992319F09093F401AA
:101D000003C081E08093F40135EB2303C00111246B
:101D1000992319F09093F50103C081E08093F501B8
:101D20008091F20181110BC08091F301811107C0F4
:101D30008091F401811103C08091F50181110E940D
:101D4000080DEB82FC820D831E8386E0FE01319636
:101D5000A0EFB1E001900D928A95E1F726960FB6BB
:101D6000F894DEBF0FBECDBFDF91CF911F910F91D1
:101D7000FF90EF900895E0EFF1E086E0DF011D9223
:101D80008A95E9F71092EE011092ED011092EF01A1
:101D900008950E941020811102C00E94CA200E9452
:101DA0004B208093D902282F26952695269530E042
:101DB0002430310524F0877088618093D9028091A6
:101DC000D90280FF04C086958695869501C080E083
:101DD0000C9444102091D902822F86958695869581
:101DE000482F50E04330510554F48F5F982F990FDE
:101DF000990F990F822F8770892B8093D902809138
:101E0000D90281608093D9020E944F208091B20252
:101E100080FF11C08091D9028695869586951F9284
:101E20008F9385E294E09F938F930E9472040F90AA
:101E30000F900F900F908091D90286958695869588
:101E40000C9444108091D902982F9695969596956A
:101E5000A1F0915E990F990F990F8770892B80934C
:101E6000D902887F91E009F490E08091D90290FB3B
:101E700080F98093D9020E944F208091B20280FFA6
:101E800011C08091D9028695869586951F928F9371
:101E90008DE094E09F938F930E9472040F900F90B7
:101EA0000F900F908091D9028695869586950C9417
:101EB00044108091D90280FD1FC081608093D902B7
:101EC000813019F489E08093D9028091D9020E946F
:101ED0004F208091B20280FF08C085EE93E09F936F
:101EE0008F930E9472040F900F908091D902869573
:101EF000869586950C94441008958091D90280FFB0
:101F000014C08E7F8093D9020E944F208091B2022C
:101F100080FF08C082ED93E09F938F930E9472042C
:101F20000F900F9080E00C9444100895CF93C091CF
:101F3000D902C1708091B20280FF0CC01F92CF9372
:101F400087EF93E09F938F930E9472040F900F90FE
:101F50000F900F90CC2319F0CF910C947D0FCF915F
:101F60000C94590F9091D902892F86958695869564
:101F70008F5F8F719770843038F4880F880F880FC7
:101F8000892B8093D90202C09093D9028091D90203
:101F9000887F91E009F490E08091D90290FB80F96C
:101FA0008093D9020E944F208091B20280FF11C01D
:101FB0008091D9028695869586951F928F938EEB98
:101FC00093E09F938F930E9472040F900F900F9055
:101FD0000F908091D9028695869586950C94441031
:101FE000843008F083E09091D9029770282F220F57
:101FF000220F220F922B9093D902987F21E009F4AF
:1020000020E09091D90220FB90F99093D9020C9492
:1020100044100E94F00F8091D9020C944F209C0133
:10202000FB018281882349F12E3BFCE53F07C9F083
:1020300040F42C3BECE53E0769F02D3B3C4561F05C
:102040000895203C9CE5390791F070F0213C3C4517
:1020500089F0089583E001C080E00E94091080E0CB
:1020600008950E94220FFBCF0E94EA0EF8CF0E9433
:10207000960FF5CF0E94B20FF2CF81E00895279A14
:102080002F9808952F980895CF92DF92EF92FF92A4
:10209000CF93C82F843050F4811109C08091800003
:1020A000877F809380000E94421006C0C3E0809129
:1020B00080008860809380002C2F30E0AFEFBFEF6E
:1020C0000E94472C23E030E040E050E00E941F2CAB
:1020D000B42FA32F922F8827492F5A2F6B2F7727A2
:1020E000CA014C3724E1520728F469E070E00E94ED
:1020F000F72B29C0DB01CA018A50974DAF4FBF4F64
:102100006627782F892F9A2F25EF38E241E050E09B
:102110000E941F2C69017A01CA01B9010E94DB2BC0
:102120009B01AC01C701B6010E94DB2BBB27A92F85
:10213000982F872F009721E0A207B10511F0BC016D
:1021400002C06FEF7FEF70938D0060938C00CF9192
:10215000FF90EF90DF90CF90089508950E943F1078
:102160008AE08093800089E1809381008FEF9FEF68
:1021700090938700809386000C94C90ECF93DF93D1
:1021800097FF0DC0FB012281222349F0EC010E9440
:102190001211CE019F770E9469110E944B1181E0BC
:1021A000DF91CF9108958CE090E00E94612C90E047
:1021B000A0E0B0E08093DA029093DB02A093DC020F
:1021C000B093DD028091B20280FF0EC08091DA02EE
:1021D0001F928F938CE594E09F938F930E947204DB
:1021E0000F900F900F900F9008956091DA028CE09D
:1021F00090E00C946F2C8093DA020E94F51080918D
:10220000B20280FF0EC08091DA021F928F938DE39D
:1022100094E09F938F930E9472040F900F900F9001
:102220000F9008950E94D213869581708093DF02EB
:102230009091DA02913029F4882319F089E30E9401
:10224000F4160E945C1F8093DE020E946F1F809133
:10225000DA02813071F048F0823081F08430A1F4EC
:1022600086EE0E94F41688E10DC082EE0E94CB1526
:102270000BC088E193E00E94230806C082EE0E9412
:10228000CB1587E50E94F4168FE39CE90197F1F7DF
:1022900000C0000008958091DA02813039F078F0B2
:1022A000823069F0843089F488E20DC08CE20E94AB
:1022B000F4168091DF02882341F089E304C082EEA6
:1022C0000E94751602C00E94F4168091DE020C94E2
:1022D0006C1F0F931F93CF93DF938C01CCE0D0E062
:1022E000C8010C2E02C0969587950A94E2F78F706C
:1022F0000E9467092497CC3F8FEFD80789F7DF91B9
:10230000CF911F910F9108950F931F93CF93DF9358
:10231000EC018B01FB018281882351F00E945C1F3C
:10232000CE01825E9C458530910510F40E94FB1021
:10233000B801CE01DF91CF911F910F910C94BE1087
:102340000F931F93CF93DF93C42FD22FFC01828171
:102350008823C9F04093F8010E943C229093F70132
:102360008093F60180E28C0F883008F057C0C77068
:1023700081E001C0880FCA95EAF7DF91CF911F91E4
:102380000F910C94FD168091F801481330C0809194
:10239000F6019091F7010E945422883C910538F58E
:1023A00010E21D0FCD17B9F080E28C0F883040F499
:1023B000C77081E001C0880FCA95EAF70E94041730
:1023C000183028F581E09D2F977001C0880F9A95ED
:1023D000EAF70E94FD16802F0E94F4161830F0F4E0
:1023E000D77081E001C0880FDA95EAF70AC080E271
:1023F0008C0F883098F4C77081E001C0880FCA95AF
:10240000EAF7DF91CF911F910F910C940417802F61
:10241000DF91CF911F910F910C94F416DF91CF9122
:102420001F910F9108950F939C01CB01243F4CE520
:10243000340731F188F4293DFCE53F07D9F02A3D06
:102440004CE5340779F1283D3C45A9F506E221EE3B
:1024500041EE68ED7CE52BC0263FFCE53F07E1F04F
:10246000A8F0273F3C4539F507E225EE46EE67EF39
:102470007CE51DC007E225EE45EE69ED7CE517C061
:1024800006E221EE40EE64EF7CE511C007E225EEA6
:1024900044EE65EF7CE50BC006E221EE42EE66EF0E
:1024A0007CE505C008E221E045EE6AED7CE50E948E
:1024B000A01180E008C0FC018281882319F01092ED
:1024C000F80101C081E00F910895CF93DF93EC01F3
:1024D000FB018281882309F41FC1C230FCE5DF07BC
:1024E00008F41BC1C6319CE5D90738F09E012B5F6B
:1024F0003C452930310508F010C10E942D209093F1
:10250000E5028093E402C031ECE5DE0709F4C3C0C4
:1025100008F041C0C8308CE5D80709F49AC0F0F43F
:10252000C430ECE5DE0709F487C068F4C2308CE5FE
:10253000D80709F477C0C330DC4509F0E3C08091C7
:10254000E402826076C0C630ECE5DE0709F46EC0B6
:1025500008F07BC08091E40288606BC0CC308CE5D1
:10256000D80709F485C068F4CA30ECE5DE0709F441
:1025700074C008F079C00E9490198091E4028068CC
:1025800058C0CE308CE5D80709F476C008F07FC07B
:102590008091E4028BC0CC3FECE5DE0709F44FC02C
:1025A00018F5C3318CE5D80709F47DC078F4C13142
:1025B000ECE5DE0709F473C0C231DC4509F0A2C0C6
:1025C0000E9490198091E4028F7733C0C5318CE569
:1025D000D80709F472C008F486C0CB3FDC4509F087
:1025E00091C08091E5023EC0C115FDE5DF0709F409
:1025F0005FC058F4CE3F9CE5D90709F444C008F405
:102600003FC08091E50282602DC0C230FDE5DF074A
:1026100009F475C008F45DC0C330DD4509F072C02F
:1026200080E06EC08091E402816003C08091E4028A
:1026300080618093E40266C08091E40211C08091C1
:10264000E50282608093E5025DC08091E4028062D1
:10265000F0CF8091E4028064ECCF8091E402886046
:102660008460E7CF8160EECF8091E4028E7FE1CF7E
:102670008091E4028D7FDDCF8091E402877FD9CF06
:102680008091E50218C08091E5028D7FDBCF8091BB
:10269000E4028F7ECECF8091E4028F7DCACF8091FD
:1026A000E4028F7BC6CF8091E402877F8B7FC1CF0E
:1026B0008091E5028D7F8E7FC5CF8091E40282FB01
:1026C000222720F991E0922790FB82F990FB83F971
:1026D000B0CF8091E502982F909591708E7F892BD5
:1026E00090FB81F9AFCF0E9490198091E40287FBA3
:1026F000222720F991E0922790FB87F99ACF81E079
:102700000E94CC208091E4029091E5020E943E203C
:102710000E94901980E001C081E0DF91CF9108957F
:10272000CF93DF9386319C4541F5EB010E945C1FFE
:10273000982F8A812091060130910701882379F032
:102740009A7A81E009F480E08093F901911102C046
:1027500069E201C065E3C9010E9489210AC0809134
:10276000F901811102C069E201C065E3C9010E945B
:1027700094210E94AD1F80E001C081E0DF91CF91E4
:1027800008959093FF018093FE010895E091FE016A
:10279000F091FF01309721F00190F081E02D099434
:1027A00080E00895E091FE01F091FF01309711F46F
:1027B00080E008950190F081E02D09950895EF9251
:1027C000FF921F93CF93DF93FC01A091FE01B09184
:1027D000FF01109709F442C080911201882341F053
:1027E0008091E40287FF04C08081818385E080833B
:1027F000EF011296ED91FC911397CE01099580910E
:10280000B20282FF2BC080FF04C084E894E00E94E3
:10281000D90318E08EE7E82E84E0F82E8091B2020A
:1028200080FF0BC088811F928F93FF92EF920E94CE
:1028300072040F900F900F900F901150219611116C
:10284000EDCF8091B20280FF09C08CE794E0DF9168
:10285000CF911F91FF90EF900C94D903DF91CF910E
:102860001F91FF90EF900895E091FE01F091FF011C
:10287000309739F022E0DC012C930480F581E02DC3
:10288000099408952091FC013091FD012817390722
:1028900071F09093FD018093FC01E091FE01F091B5
:1028A000FF01309721F00680F781E02D099408950B
:1028B0002091FA013091FB012817390771F09093AC
:1028C000FB018093FA01E091FE01F091FF01309746
:1028D00021F00084F185E02D099408950E9448229A
:1028E000609311027093120280931302909314026A
:1028F00060930D0270930E0280930F02909310026A
:10290000089585B7806885BF85B7806885BF0895BD
:1029100081E008950C94881408950C948C140C9400
:102920008C140C948F140C948C140C9493140C949D
:102930008C140E9481148AE196E20E94AD220E94CA
:1029400097140C9495140E9433220E9498040E94BC
:10295000FE220E94C90E0C949114CF93C82F80912F
:10296000B20282FF1EC080FF04C08DE994E00E9485
:10297000D9038091B20280FF0CC01F92CF9388E9E7
:1029800094E09F938F930E9472040F900F900F908A
:102990000F908091B20280FF04C086E994E00E940B
:1029A000D9038C2FCF910C949D096F927F928F92B7
:1029B0009F92AF92BF92CF92DF92EF92FF920F93CE
:1029C0001F93CF93DF93CDB7DEB72A970FB6F89456
:1029D000DEBF0FBECDBF0E948D140E948C140E94DA
:1029E000070581110E946E1431E0832E32E0932E90
:1029F00000E010E0C02E802F0E94A1055C01F401D0
:102A0000619071904F016826792661147104B1F4C8
:102A10000F5F1F4F0630110569F78FEF89838A8397
:102A20001B820E943C228160782F9D838C83498188
:102A30005A816B818D810E9491153AC08091B202BA
:102A400081FD0E94AA05D12CEE24E394F12CC30150
:102A50008E219F21892B29F10E948A148823A9F0B5
:102A6000DE82CF82AE20BF2081E0AB2809F480E077
:102A700088870E943C228160782F9A8789874E81BF
:102A80005F8168858A850E949115000F111FF801EA
:102A9000EF5FFD4F80819181E826F926F182E08287
:102AA00007C0D394EE0CFF1CFEE0DF12D0CFB0CFF6
:102AB0000E94AD100E94A80D0E94C61390910002C2
:102AC0008917D1F00E94C613809300022A960FB690
:102AD000F894DEBF0FBECDBFDF91CF911F910F9154
:102AE000FF90EF90DF90CF90BF90AF909F908F902E
:102AF0007F906F900C94AD142A960FB6F894DEBFB9
:102B00000FBECDBFDF91CF911F910F91FF90EF903E
:102B1000DF90CF90BF90AF909F908F907F906F90FD
:102B20000895DF92EF92FF920F931F93CF93DF935D
:102B3000CDB7DEB72B970FB6F894DEBF0FBECDBF73
:102B4000F42E052F162FE72ED82E61110E947F1F1D
:102B5000FE01319686E0DF011D928A95E9F77E2D10
:102B60004F2D502F612F8D2D9E810E94491C2B9639
:102B70000FB6F894DEBF0FBECDBFDF91CF911F918E
:102B80000F91FF90EF90DF900895FC01808191817B
:102B90000E941D1F0895CF93882309F4A4C0C82F55
:102BA0008238C1F40E94C61381FD9DC069E3809103
:102BB0000601909107010E9489210E94AD1F2FEF0D
:102BC00081EE94E0215080409040E1F700C0000089
:102BD00069E319C0833801F50E94C61380FD83C0E4
:102BE00063E580910601909107010E9489210E946E
:102BF000AD1F2FEF81EE94E0215080409040E1F72F
:102C000000C0000063E580910601909107010E94D9
:102C10009421CF910C94AD1F8438C1F40E94C61347
:102C200082FD61C067E480910601909107010E94D6
:102C300089210E94AD1F2FEF81EE94E0215080404A
:102C40009040E1F700C0000067E4DDCF8CEF8C0F0F
:102C5000813AD0F46C2F80910601909107010E9477
:102C6000E720882349F06C2F80910601909107019D
:102C70000E9494210E94AD1F6C2F809106019091BB
:102C800007010E948921C5CF80E28C0F883048F46B
:102C9000C77081E001C0880FCA95EAF70E945F1FE4
:102CA000B8CFEBE5EC0FE33040F4F0E0EE58FE4F28
:102CB000808190E0CF910C944214E8E5EC0FE7316D
:102CC00050F4F0E0EE0FFF1FEC5BFE4F808191812E
:102CD000CF910C945814CD3E30F08C2F0E94360CBE
:102CE000CF910C94080DCF910895882309F464C006
:102CF000823879F40E94C61381FF5EC069E3809137
:102D00000601909107010E9489210E94AD1F69E38D
:102D100010C08338B1F40E94C61380FF4DC063E534
:102D200080910601909107010E9489210E94AD1FA8
:102D300063E580910601909107010E9494210C9413
:102D4000AD1F843879F40E94C61382FF35C067E452
:102D500080910601909107010E9489210E94AD1F78
:102D600067E4E7CF9CEF980F913A10F4682FE1CF1A
:102D700090E2980F983050F4877091E001C0990F5D
:102D80008A95EAF7892F0E94651FD9CF9BE5980F96
:102D9000933020F480E090E00C94421498E5980F72
:102DA000973120F480E090E00C9458148D3E20F090
:102DB0000E94910C0C94080D08951F93CF93DF93FC
:102DC000182FEB010E94CB15209741F08FE99FE06F
:102DD0000197F1F700C000002197F6CF812FDF9116
:102DE000CF911F910C947516893319F060E070E053
:102DF00002C060E570E00C94DD16882321F00E948B
:102E00005F1F0C94AD1F0895882321F00E94651F59
:102E10000C94AD1F0895CF92DF92EF92FF920F9323
:102E20001F93CF93DF937C01062FC72FFC01D28124
:102E3000158112951F700E94551F882399F0DD237C
:102E400089F08C2F807F803421F080E2800F8830E1
:102E500048F082E00E94F71F0E94551F91E0D82E93
:102E6000D92601C0D12CCC2EC2948FE0C8228C2D43
:102E700090E0FC01EA5AFF4F0C94412C8C2F807F8C
:102E8000CF70882311F0C295C07FDD2399F0CC2349
:102E900009F485C180E2800F883010F0011104C070
:102EA0008C2F0E945F1F03C08C2F0E94721F0E94F4
:102EB000AD1F75C1802F0E947516CC2309F494C1F3
:102EC00080E2800F883010F0011104C08C2F0E9426
:102ED000651F03C08C2F0E94781F0E94AD1F84C104
:102EE0008C2F807FCF70803211F0C295C07F00237D
:102EF00019F00130C9F024C0DD2371F0112341F035
:102F0000113031F40E94921F8C2B0E949A1F6CC1C9
:102F10000E94921F8C2B0EC0112319F0113009F45E
:102F200063C10E94A31F1EC0DD2339F0123008F0D8
:102F30005BC18C2F0E94FD1657C1111155C112C0E3
:102F4000DD2319F01123A9F32AC1112359F0093304
:102F500009F036C1FFEF27EE83E0F15020408040BA
:102F6000E1F72CC18C2F0E9404173EC18C2F86954F
:102F70008695837019F0813061F036C1DD2321F030
:102F8000802F9C2F937002C080E090E00E9442143A
:102F900033C1DD2321F0802F9C2F937002C080E08D
:102FA00090E00E94581428C1802FDD2319F00E9460
:102FB000360C02C00E94910C0E94080D1DC18C2F7E
:102FC000837009F045C0D11113C1402F4295469539
:102FD0004770440F440F602F6F70862F90E0A0E081
:102FE000B0E0042E04C0880F991FAA1FBB1F0A94CB
:102FF000D2F704FF10C00FE010E020E030E004C082
:10300000000F111F221F331F4A95D2F7009510950C
:103010002095309503C000E010E09801C695C69554
:10302000C370BC01CD01602B712B822B932BC2305E
:1030300049F058F4C13019F00E949A1DD9C00E947D
:10304000881DD6C00E94AC1DD3C00E94861DD0C072
:10305000DD2319F08C2F817001C08695882309F437
:10306000C7C0402F429546954770440F440F602FCC
:103070006F70862F90E0A0E0B0E0042E04C0880FAF
:10308000991FAA1FBB1F0A94D2F704FF10C00FE0BC
:1030900010E020E030E004C0000F111F221F331F9A
:1030A0004A95D2F7009510952095309503C000E021
:1030B00010E09801C695C695C370BC01CD01602B88
:1030C000712B822B932BC23049F058F4C13019F088
:1030D0000E945F1E8DC00E944D1E8AC00E94711EFC
:1030E00087C00E94C01D84C0CF70DD2339F08C2FB3
:1030F0000E94E61D802F0E94FD167AC0802F0E943C
:1031000004178C2F0E94071E73C0023FF9F028F4A9
:10311000003F41F0013F99F03EC0033FF1F0043F12
:1031200031F139C0DD2339F011115EC08C2F8F7160
:103130000E942C1E59C0123008F056C0F7CFDD2374
:1031400039F08C2F8F710E94E61D4EC0DD23C9F32C
:103150008C2F8F710E94071E47C0DD2329F08C2F12
:103160008F710E94D11D40C00E94CC1D3DC0DD2347
:1031700049F0CF718C2F0E94E61D63E08C2F0E94D6
:10318000E21F32C081E00E94F71F123068F182E036
:103190000E94F71F29C0DD2331F0112391F2802F07
:1031A0000E94CB1521C0112399F2093349F49FEFF6
:1031B000E7EEF3E09150E040F040E1F700C000009E
:1031C000802F0E94751610C04C2F4F70602FC701C2
:1031D0000E94A6090E94F71C0FC04C2F4F70602F51
:1031E000C7010E94A90908C088EF8C0D843020F423
:1031F0000E94C6130E949D09DD20C9F00E94511F44
:1032000080FD15C0F70112820E944B1F0E94E61D2F
:10321000C7010E9438190E944B1FDF91CF911F9167
:103220000F91FF90EF90DF90CF900C94071EDF91ED
:10323000CF911F910F91FF90EF90DF90CF90089565
:103240000F931F93CF93DF93EC01688179818A817B
:103250000E94281F8C010E94831E0E94741DB801C9
:10326000CE010E940B17DF91CF911F910F9108950E
:10327000CF93DF93EC01988189812B813C81232BB3
:1032800031F08F3F31F481E09F3F19F403C081E0BA
:1032900001C080E080FD19C0CE010E949B08811111
:1032A0000CC00E94551F882381F08A81882369F011
:1032B00082E0DF91CF910C94F71FCE010E9420197C
:1032C000CE01DF91CF910C947208DF91CF910895D8
:1032D000882321F00E94721F0C94AD1F089588234B
:1032E00021F00E94781F0C94AD1F089580E090E0BB
:1032F0000E94421480E090E00E9458140E947F1FB8
:103300000E948F1F0E94AD1F0E94BB0E0C94080DDF
:1033100080910601909107010E949F210C947619DB
:103320000E946F1F0C948819E92FE295EF704E2FC1
:1033300050E0FA013297EE30F105B0F4EA59FF4F50
:103340000C94412C803F91F018F4883E68F40EC034
:10335000843F51F40BC0883E48F0813F29F406C0F9
:1033600093FB882780F9089580E0089581E008950F
:103370000E941D1F0E9494190895CF93DF9300D0DF
:1033800000D01F92CDB7DEB70F900F900F900F9027
:103390000F90DF91CF910895CF93DF9300D000D0AD
:1033A00000D0CDB7DEB726960FB6F894DEBF0FBEBD
:1033B000CDBFDF91CF9108951F93CF93DF93C0913D
:1033C000160216E080911702C81799F0D0E01C9FF2
:1033D000F0011D9FF00D1124E85EFD4F40815181E9
:1033E00062817381848195810E94CC192196C77076
:1033F000E9CFDF91CF911F910895409148025091FC
:10340000490260914A0270914B0280914C02909166
:103410004D020C94CC190F931F93CF93DF9380919F
:103420004D0282958F7009F05DC080914A02882319
:1034300009F458C080911602109117026091480259
:1034400070914902C0914B02D0914C0291E06F3FC4
:1034500009F090E0292F06E0811709F443C0209776
:1034600021F07F3F21F030E003C031E001C0322F76
:1034700090E030FD34C0089FF001099FF00D112449
:10348000DF01A85EBD4F11963C911197371327C0FD
:103490003C91361324C012963C91129731111FC0F3
:1034A00013964D915C9114974C1B5D0B483C510554
:1034B000B0F480914D028F70806180934D02E35E85
:1034C000FD4F80818F708061808388E492E00E944C
:1034D0003819DF91CF911F910F910C94DC1901964F
:1034E0008770BACFDF91CF911F910F9108959F926E
:1034F000AF92BF92CF92DF92EF92FF920F931F9302
:10350000CF93DF93CDB7DEB761970FB6F894DEBFE8
:103510000FBECDBF8C0185E0F801DE011D96019044
:103520000D928A95E1F7F80140815181E2809091F6
:1035300048026091490220914B0230914C022115C2
:10354000310531F06F3F31F481E09F3F19F403C042
:1035500081E001C080E0F82FF1709F2E80FD46C110
:10356000F801A380B48088E4C82E82E0D82EF090C1
:103570004A02F501E21BF30BFF2009F4DFC0809142
:103580004D02E83CF10508F09BC0282F207F09F090
:1035900052C0561313C0491311C0FE2CE1100EC0C7
:1035A0008F70806180934D020E94FD19C6010E94B8
:1035B000381980914D02F801858358C1AB2831F04C
:1035C0005F3F31F481E04F3F19F403C081E001C057
:1035D00080E080FD03C081E08E2502C080E090E0A5
:1035E000F82FF170FF2E80FF1CC0809116022091F1
:1035F000170236E0821709F417C190E0389FF001F6
:10360000399FF00D1124E85EFD4F6181561306C00D
:103610006081461303C06281E61203C00196877081
:10362000E9CFFE2CEE2009F421C180914D0281608A
:1036300080934D025AC0561306C0491304C0E110CE
:1036400002C0F8019FC04D875E878D859E850E94D0
:10365000B819882379F1EE2069F120914D02822F6B
:1036600082958F7090E0029774F08091480290915B
:10367000490298878F831986BB86AA862C87CE013C
:1036800007960E94381986E0F801A8E4B2E001909C
:103690000D928A95E1F70E940B1A0E94FD190DC048
:1036A000561729F14D875E878D859E850E94B81932
:1036B00081112CC0C8010E943819FF24F394D6C090
:1036C000282F207F69F77A2DB98AA88A6E2D8989DB
:1036D0000E94BD1988E492E00E94381986E0F60144
:1036E00011928A95E9F70E94FD19F12CBFC0491388
:1036F000D9CFE110D7CFF8018583C8010E943819CE
:1037000086E0F60111928A95E9F7B0C0EE2091F2B9
:1037100020914D02822F82958F7090E002970CF4D9
:10372000B2CF80914802909149029A8389831B828B
:10373000BD82AC822E83CE010196A3CFE83CF10579
:1037400008F047C0FE2CEE2009F4B4CF561330C069
:1037500049132EC020914D0220FD21C0822F829559
:103760008F70482F50E041155105C9F0F8012583AD
:103770004F30510541F08F5F982F9295907F822FA7
:103780008F70892B8583C8010E94381986E0F80163
:10379000A8E4B2E001900D928A95E1F742C086E07C
:1037A000F801A8E4B2E001900D928A95E1F75EC0BD
:1037B0004D875E878D859E850E94B819811163CFE4
:1037C00080914D02816080934D02C8010E9438199A
:1037D0004DC07A2DB98AA88A6E2D89890E94BD199B
:1037E00086E0F60111928A95E9F71BC0EE2009F4F4
:1037F00061CF4D875E878D859E850E94B819F82E12
:10380000882309F457CF86E0F801A8E4B2E00190DC
:103810000D928A95E1F788E492E00E94C5150E9416
:103820000B1A0E94FD1922C04D875E878D859E85EB
:103830000E941D1F292F22952F70223028F49F707F
:1038400039F0811105C00BC0243028F49F7049F471
:10385000805E883020F0C8010E9438199F2CF92C16
:1038600005C0F8019581907F99F7F9CF8F2D61966A
:103870000FB6F894DEBF0FBECDBFDF91CF911F9181
:103880000F91FF90EF90DF90CF90BF90AF909F90FF
:1038900008951F93CF93DF93CDB7DEB72C970FB664
:1038A000F894DEBF0FBECDBF4F83588769877A87F4
:1038B0008B879C87CE0107960E94771A8823D1F0C8
:1038C0009F8188852A853B85232B31F08F3F31F4FA
:1038D00081E09F3F19F403C081E001C080E080FDDA
:1038E00047C04F81588569857A858B859C850E9464
:1038F000CC193EC086E0FE013796DE01119601909C
:103900000D928A95E1F7FF81E8856A857B856115CF
:10391000710531F0EF3F31F481E0FF3F19F403C04E
:1039200081E001C080E080FD23C02091170230E0DB
:10393000C9010196877099274091160250E08417BB
:103940009507F1F1F983EA837D836C8396E0929F7A
:10395000D001939FB00D1124A85EBD4FFE0131969A
:1039600001900D929A95E1F7809317020E94DC195D
:1039700016E08091160290911702891771F1189F35
:10398000C0011124885E9D4F0E94771A882329F177
:10399000E09116021E9FF0011124E85EFD4F408168
:1039A000518162817381848195810E94CC198091BB
:1039B000160290E001968770992780931602D9CF5E
:1039C0000E9490191092170210921602E8E4F2E099
:1039D00086E0DF011D928A95E9F72C960FB6F894E0
:1039E000DEBF0FBECDBFDF91CF911F910895EF9243
:1039F000FF920F931F93CF93DF938C01892B09F4D0
:103A00006CC0F12CEE24E394E8012196F801849136
:103A1000843740F4843008F051C0813081F0823026
:103A200019F15BC0853709F444C0A8F19CE7980FF1
:103A3000903708F052C08F770E94751641C00E5F14
:103A40001F4FFE01849190E2980F983050F48770D8
:103A5000FE2D01C0FF0F8A95EAF78F2F0E94821F6B
:103A600014C00E94CB152DC00E5F1F4FFE01849124
:103A700090E2980F983060F48770FE2D01C0FF0F20
:103A80008A95EAF78F2F0E94881F0E94AD1F19C0E8
:103A90000E94751616C00E5F1F4FFE01C491CC2305
:103AA00081F08FE99FE00197F1F700C00000C1505D
:103AB000F6CF0E5F1F4FFE01F49003C00E94CB159E
:103AC0008E018F2D882309F49FCFEFE9FFE0319716
:103AD000F1F700C000008150F5CFDF91CF911F9129
:103AE0000F91FF90EF900895089508950C94751D1F
:103AF0000C94761D0E94781D6093890270938A024F
:103B000080938B0290938C020C9476190C947A1DFE
:103B10000F931F930091890210918A0220918B02CA
:103B200030918C02602B712B822B932B1F910F9164
:103B30000C947A1D0F931F930091890210918A02B1
:103B400020918B0230918C02602371238223932376
:103B50001F910F910C947A1D0F931F93009189026E
:103B600010918A0220918B0230918C02602771277C
:103B7000822793271F910F910C947A1D0C94751D29
:103B80000E94BE1D60938502709386028093870217
:103B9000909388020C94761960E070E0CB010C944D
:103BA000C01D0F931F9341E050E060E070E08A0178
:103BB0009B0104C0000F111F221F331F8A95D2F7EB
:103BC000C901B8011F910F910C94C01D0F931F9351
:103BD00041E050E060E070E004C0440F551F661FF4
:103BE000771F8A95D2F78091850290918602A091E5
:103BF0008702B09188028A019B01082B192B2A2B7E
:103C00003B2BC901B8011F910F910C94C01D0F935C
:103C10001F9341E050E060E070E004C0440F551F86
:103C2000661F771F8A95D2F74095509560957095DD
:103C30008091850290918602A0918702B0918802BE
:103C40008A019B01082319232A233B23C901B801B8
:103C50001F910F910C94C01D0F931F9341E050E0F2
:103C600060E070E004C0440F551F661F771F8A95FF
:103C7000D2F78091850290918602A0918702B0913F
:103C800088028A019B01082719272A273B27C90197
:103C9000B8011F910F910C94C01D0F931F930091B9
:103CA0008502109186022091870230918802602B54
:103CB000712B822B932B1F910F910C94C01D0F938E
:103CC0001F93009185021091860220918702309106
:103CD000880260237123822393231F910F910C94F8
:103CE000C01D0F931F9300918502109186022091B1
:103CF00087023091880260277127822793271F91BE
:103D00000F910C94C01D08952EE0929F800D1124F8
:103D1000E82FE695E695E695877051E001C0550FCE
:103D20008A95EAF785E0E89FF0011124E25BFD4FF8
:103D300020E030E070E04081CB01022E02C0969579
:103D400087950A94E2F781708195842785238427DB
:103D500081932F5F3F4F2530310569F708952EE09D
:103D6000929F800D1124682F669566956695982F11
:103D7000977085E0689FB001112440E050E080E03A
:103D8000FB01E40FF51FE25BFD4F208130E0092EBF
:103D900002C0369527950A94E2F721703327042E46
:103DA00001C0220F0A94EAF7822B4F5F5F4F453024
:103DB000510531F70895BF92CF92DF92EF92FF92B3
:103DC0000F931F93CF93DF938C01C0908502D09007
:103DD0008602E0908702F09088028091890290919B
:103DE0008A02A0918B02B0918C02C82AD92AEA2AB1
:103DF000FB2ACFE1D0E0D701C6010C2E04C0B69556
:103E0000A795979587950A94D2F780FD04C02197CE
:103E100090F7B12C07C0BC2EB8018C2F0E94C509A9
:103E20000197A9F38B2DDF91CF911F910F91FF90F7
:103E3000EF90DF90CF90BF900895CF93DF93EC0188
:103E40000E94DB1EBE010E94C509DF91CF9108953B
:103E50001F93CF93DF93EB0190911502992321F0EB
:103E6000CB010E941D1F13C0882349F0CB010E9483
:103E7000DB1E182F682FCE010E94841E04C0CB01C8
:103E80000E94AF1E182FBE01812F0E94C509DF912D
:103E9000CF911F91089580918D0285958595859587
:103EA000089580918D028770089590918D0297708A
:103EB00081E009F480E008958091B1020895909125
:103EC000B102892B8093B102089580959091B1023F
:103ED00089238093B10208958093B10208951092CE
:103EE000B10208959091B002892B8093B002089599
:103EF00080959091B00289238093B002089510922A
:103F0000B00208959091AF02892B8093AF0208957B
:103F100080959091AF0289238093AF02089510920B
:103F2000AF02089580918E02089508950C94951F14
:103F30000C94961F90918E02981721F080938E0218
:103F40000C94981F089580918E02882329F0109276
:103F50008E0280E00C94981F0895E0910601F09184
:103F600007018091B1028083E0910601F091070181
:103F700090818091B002892B8083E0910601F091BD
:103F8000070190818091AF02892B808380918E02FE
:103F9000882381F0E0910601F09107019081892B3F
:103FA000808380910601909107010E94D1208111A8
:103FB0000E94A31F80910601909107010C94DF13CA
:103FC0000C94951F98E0899F90011124262B209333
:103FD0008D020E94E61D80918D02859585958595BF
:103FE0000C94E01F10928D0280E00C94E01F209151
:103FF0008D028095822380938D02982F977079F49B
:1040000030E0482F082E000C550B2417350739F0E7
:104010008595859585950E94071E0C94F21F08953D
:1040200080E090E00E94692C21E08B3E9E4F09F0D9
:1040300020E0822F089582E090E00C94612C682F9C
:1040400082E090E00C946F2C83E090E00C94612C63
:10405000682F83E090E00C946F2CCF9384E090E085
:104060000E94612CC82F81E290E00E94612C2C2FCD
:1040700030E0A901582BCA01CF910895CF93C92FE1
:10408000682F84E090E00E946F2C6C2F81E290E01A
:10409000CF910C946F2C86E090E00C94612C682FEB
:1040A00086E090E00C946F2CAB01BC018FE090E0B7
:1040B0000C94812CAB01BC0183E190E00C94812C29
:1040C00060E070E0CB010C945A2060E070E0CB011E
:1040D0000E9454200C9460206BEE7EEF80E090E014
:1040E0000E948D2C60E082E090E00E946F2C60E0E6
:1040F00083E090E00E946F2C1092890210928A0255
:1041000010928B0210928C0260E084E090E00E949A
:104110006F2C60E081E290E00E946F2C60E085E00F
:1041200090E00E946F2C60E086E090E00E946F2C8F
:104130006FEF87E090E00E946F2C40E050E0BA0102
:1041400088E090E00E94812C60E08DE090E00E9489
:104150006F2C40E050E0BA0188E190E00E94812C91
:1041600060E087E190E00E946F2C40E050E0BA01EF
:104170008CE190E00E94812C60E080E290E00E945F
:104180006F2C40E050E0BA0188E190E00E94812C61
:104190000C9465200C946C20682F8EE090E00C94B9
:1041A0006F2CFC01329680911201882331F08091AE
:1041B000E40287FF02C09EE101C096E080E09150DA
:1041C00028F021912223D9F38F5FF9CF0895662338
:1041D00051F1209112012223E9F02091E40227FFFE
:1041E00019C0462F4695469546954E31E0F46770C6
:1041F00021E030E002C0220F331F6A95E2F7FC0194
:10420000E40FF11D828190E02823392381E0232BE4
:1042100069F409C0FC01329608962191621729F0D1
:10422000E817F907D1F780E0089581E008959C012F
:10423000FC0132969FEF80E04191461789F09F3F45
:1042400019F4411101C0982F8F5F8630A9F79F3F65
:1042500039F0F901E90FF11D97FDFA956283089590
:1042600008959C012A5F3F4FFC014281461301C023
:104270001282019682179307B9F70895262F269583
:10428000269526952E3170F4FC01E20FF11D677022
:1042900021E030E001C0220F6A95EAF78281282BE5
:1042A000228308958091B20280FF0CC01F926F9309
:1042B0008EEC94E09F938F930E9472040F900F9066
:1042C0000F900F900895262F2695269526952E312E
:1042D00078F4FC01E20FF11D677021E030E001C0CD
:1042E000220F6A95EAF72095828128232283089578
:1042F0008091B20280FF0CC01F926F9380EB94E01C
:104300009F938F930E9472040F900F900F900F90C5
:10431000089520911201222329F02091E40227FD23
:104320000C943E210C94172120911201222329F094
:104330002091E40227FD0C9463210C9431212091FB
:104340001201FC013296222331F08091E40287FFB2
:1043500002C08EE101C086E0DF011D928A95E9F777
:10436000089508950C94B121CF930E94AE040E9449
:1043700007050E94B221C0E08C2F0E94A105892B65
:1043800029F4CF5FC630C1F780E001C081E0CF9152
:1043900008950C94B1210C94C9218091EA028430D3
:1043A00061F10E94CB2180E00E94441080E00E94D5
:1043B0009D091092B30220E488E190E00FB6F894D2
:1043C000A895809360000FBE2093600083B7817F23
:1043D000846083BF83B7816083BF7894889583B7F7
:1043E0008E7F83BF0FB6F894A89580916000886196
:1043F00080936000109260000FBE08950C94B1216C
:104400000E9490190E94C90E0E94C6130E949D0925
:104410000C94FE211F920F920FB60F9211248F93CE
:104420009F93AF93BF938091B302811113C080918A
:10443000E0029091E102A091E202B091E302419684
:10444000A11DB11D8093E0029093E102A093E202CE
:10445000B093E302BF91AF919F918F910F900FBEE8
:104460000F901F90189582E084BD93E095BD9AEF60
:1044700097BD80936E0008952FB7F8948091E00265
:104480009091E102A091E202B091E3022FBF089562
:104490002FB7F8946091E0027091E1028091E202FE
:1044A0009091E3022FBF08959C014FB7F89480913B
:1044B000E0029091E102A091E202B091E3024FBFCD
:1044C000821B930B089578941F920F920FB60F9250
:1044D00011248F939F93AF93BF938091E0029091AB
:1044E000E102A091E202B091E3020196A11DB11D8B
:1044F0008093E0029093E102A093E202B093E30282
:10450000BF91AF919F918F910F900FBE0F901F9011
:10451000189581E08093E00080E28093D8001092AB
:10452000C9008FE19EE40197F1F700C0000087E029
:1045300090EBDC018093F3029093F402A093F502D8
:10454000B093F6029CE088E10FB6F894A8958093AA
:1045500060000FBE90936000FFCF90938501809321
:1045600084010895AF92BF92CF92DF92EF92FF92B3
:104570000F931F93CF93C0E0CC24C394D12CE82E8B
:10458000F12C8C2F0E94A1055C0100E010E0C60117
:10459000002E02C0880F991F0A94E2F78A219B21FE
:1045A000892B31F40F5F1F4F0E30110581F70AC0C0
:1045B000602F7C2F80E00E94AA09E816F90691F787
:1045C00081E004C0CF5FC630E1F680E0CF911F915B
:1045D0000F91FF90EF90DF90CF90BF90AF90089534
:1045E000CF93C82F8CE20E94B222882321F08C2F17
:1045F000CF910C94B22280E0CF910895CF930E9486
:104600001020811102C00E94CA2083EF94E00E9412
:10461000D903C5E6C15049F00E9407058FE39CE924
:104620000197F1F700C00000F5CF8CEE94E00E94F6
:10463000D90389E20E94F02281112AC18AE20E94F4
:10464000F02281110E94CA2085E00E94F02281118F
:104650000E9489220E941B208093B20287E00E9460
:10466000F0228823A9F18BE10E94F022882351F0E7
:104670008091B20281FB222720F991E0922790FBE2
:1046800081F90EC08EE00E94F022882361F08091B3
:10469000B20282FB222720F991E0922790FB82F957
:1046A0008093B20215C080E10E94F0229091B20284
:1046B000882341F093FB222720F981E0822780FBA9
:1046C00093F904C0892F809580FB90F99093B202F2
:1046D0008091B2020E941F200E942D209093E5023B
:1046E0008093E40280EE0E94F022882341F08091C2
:1046F000E402982F909590FB80F98093E40289E37F
:104700000E94F022882359F08091E40281FB222745
:1047100020F991E0922790FB81F98093E40282EEE8
:104720000E94F022882359F08091E40282FB222724
:1047300020F991E0922790FB82F98093E40286EEC3
:104740000E94F022882359F08091E40283FB222703
:1047500020F991E0922790FB83F98093E40283EEA5
:104760000E94F022882359F08091E40284FB2227E2
:1047700020F991E0922790FB84F98093E40285E38D
:104780000E94F022882359F08091E40285FB2227C1
:1047900020F991E0922790FB85F98093E40281E370
:1047A0000E94F022882359F08091E40286FB2227A0
:1047B00020F991E0922790FB86F98093E40281E151
:1047C0000E94F022882359F08091E40287FB22277F
:1047D00020F991E0922790FB87F98093E402809181
:1047E000E4029091E5020E943E2087E20E94F022BE
:1047F000C82F8EE10E94F0228111C2608FE10E94D9
:10480000F0228111C46080E20E94F0228111C86010
:1048100081E20E94F0228111C06182E20E94F022B6
:104820008111C06283E20E94F0228111C06484E29F
:104830000E94F022882311F0C06802C0CC2329F026
:104840008C2F0E9428206C2F03C00E942420682FE8
:1048500070E080E090E00E94861D6091850270917A
:10486000860280918702909188020E94BE1D8FE08F
:104870000E94F022882319F081E00E94CC2085E17B
:104880000E94F022882321F080E0CF910C94CC206C
:10489000CF9108958091D7020895CF93DF9300D0F0
:1048A0001F92CDB7DEB79091EA02943019F5898353
:1048B0007B836A8382E08093E9008FEF9091E80028
:1048C000815095FD06C095ED9A95F1F70000811194
:1048D000F5CF8091E80085FF0DC040E050E063E037
:1048E00070E0CE0101960E943E278091E8008E770D
:1048F0008093E8000F900F900F90DF91CF91089573
:10490000BC0184E00C944D24BC0183E00C944D2444
:1049100022E02093E9002FEF3091E800215035FD8F
:1049200006C035ED3A95F1F700002111F5CF209141
:10493000E80025FF0BC040E050E066E070E00E9418
:104940003E278091E8008E778093E8000895CF930A
:10495000DF9320911201222339F02091E40227FFF6
:1049600003C060E222E002C068E021E02093E90099
:104970002FEF3091E800215035FD06C035ED3A9516
:10498000F1F700002111F5CF2091E80025FF1DC0AF
:10499000EC0180911201811105C040E050E068E017
:1049A00070E003C070E040E050E0CE010E943E277E
:1049B0008091E8008E778093E80080E2FE01A7EB0B
:1049C000B2E001900D928A95E1F7DF91CF910895C1
:1049D0008DE295E00E94D9038091E902811109C01E
:1049E0000E94CF280E942C298091E200846080934D
:1049F000E200089589E295E00E94D9031092E9024D
:104A0000089585E295E00C94D90381E295E00C9439
:104A1000D9038DE195E00C94D9032091B5022F5F65
:104A2000822F62E30E94EB2B992319F02093B502A9
:104A300008951092B5028091B602882371F1809199
:104A4000EA02843041F58091E9008F702091EC00FA
:104A5000922F917020FD90E8892B93E09093E900CC
:104A60009091EB0090FF14C09091EE0097FF10C062
:104A70009091E80095FF03C01092F100F9CF90915A
:104A8000E80090FF05C09091E8009E779093E800C1
:104A90008F708093E9001092B602089542E061ECB5
:104AA00081E00E94482842E261EC82E00E944828AE
:104AB00042E261EC83E00C9448288091EC02833060
:104AC00009F460C030F4813071F0823009F499C08B
:104AD00008958A3009F485C08B3009F46BC08930A1
:104AE00009F0A7C020C08091EB02813A09F0A1C073
:104AF0008091E800877F8093E8008091EF02909199
:104B0000F002892B21F460E287EB92E003C060E0C1
:104B100080E090E070E00E9489278091E8008B7728
:104B20008093E80008958091EB02813209F081C002
:104B30008091EF029091F002029708F07AC0809184
:104B4000E800877F8093E8008091E80082FD05C03F
:104B50008091EA028111F8CF6CC02091F30080911E
:104B6000F20090E0922B029729F48091F1008B7F64
:104B7000813021F48091F1008093D7028091E80088
:104B80008B7753C08091EB02813A09F052C080913B
:104B9000EF029091F002892B09F04BC08091E80060
:104BA000877F8093E8008091E80080FFFCCF8091B0
:104BB000120136C08091EB028132D9F58091EF026B
:104BC0009091F002892BA9F58091E800877F80936E
:104BD000E8000E947D288091ED02809312010C94E0
:104BE00090198091EB02813221F58091E800877F56
:104BF0008093E8000E947D288091EE028093D80285
:104C000008958091EB02813AA1F48091E800877FBA
:104C10008093E8008091E80080FFFCCF8091D8026B
:104C20008093F1008091E8008E778093E8000C94E7
:104C30007D2808959FB7F8941092B6029FBF909177
:104C4000EA02943009F057C09091E9009F703091CA
:104C5000EC00232F217030FD20E8922B23E02093DD
:104C6000E9002091EB0020FF43C02091EE0027FFD8
:104C70003FC02091B402222321F02091E80025FFBB
:104C800037C01092B40226E03091E80035FD15C01F
:104C90003091EA02343061F53091EB0035FD28C0E7
:104CA000215021F481E08093B40222C0EFE9FFE0BB
:104CB0003197F1F700C00000E7CF8093F1008091B9
:104CC000E80085FD0AC08091E80080FFFCCF80915C
:104CD000E8008E778093E80006C08FB7F89421E053
:104CE0002093B6028FBF9F709093E90080E00895F3
:104CF0009F709093E9008FEF089584B7877F84BFFA
:104D00000FB6F894A8958091600088618093600048
:104D1000109260000FBE90E080E80FB6F894809388
:104D20006100909361000FBE0E9499140E94CF28E9
:104D30000E942C298091E20084608093E2007894A4
:104D40000E94C02B0E94A31488E091E00E94C1132E
:104D50008CE095E00E94D9038091EA028530C9F485
:104D600088E095E00E94D9038091EA02853079F4C9
:104D70000E94CD218091E8028823B1F30E94B421E2
:104D8000882391F30E9428270E949019EDCF0E945A
:104D900000220E94D5140E948D140E948C14DCCF36
:104DA0000C94D226292F332723303105C9F060F423
:104DB0002130310581F02230310509F041C08BE509
:104DC00090E023E835E040C021323105E1F02232A5
:104DD000310531F135C082E190E02EED35E034C08F
:104DE00099278130910549F028F0029749F5E1E3D0
:104DF000F5E005C0EFE7F5E002C0EBE5F5E08491F2
:104E000090E09F0121C063307105D0F4660F771FD9
:104E1000FB01E258FE4F2081318189E090E014C00F
:104E20006330710568F4FB01EE0FFF1FE858FE4F79
:104E300020813181FB01EB58FE4F808190E004C05E
:104E400080E090E020E030E0FA0131832083089593
:104E500080E189BD82E189BD09B400FEFDCF80916A
:104E6000D8008F7D8093D8008091E000826080938D
:104E7000E0008091E00081FDFCCF0895CF92DF92A9
:104E8000EF92FF920F931F93CF93DF93EC018B016F
:104E90007A010E949C28811133C0E114F10439F099
:104EA000F70180819181081B190BC80FD91FC12CF4
:104EB000D12C0115110519F18091E80085FD16C06E
:104EC0008091E8008E778093E800E114F10449F0C6
:104ED000F70180819181C80ED91ED182C08285E000
:104EE0000FC00E949C28882321F30AC089918093D7
:104EF000F10001501109FFEFCF1ADF0ADACF80E08D
:104F0000DF91CF911F910F91FF90EF90DF90CF90A5
:104F100008952091F1023091F2022617370748F0E8
:104F20006115710539F42091E8002E772093E8008F
:104F300001C0B901FC0120E06115710579F1809192
:104F4000EA028823F1F18530F1F18091E80083FDD8
:104F50003CC08091E80082FD2EC08091E80080FF77
:104F6000EBCF2091F3008091F20090E0922B61153D
:104F7000710551F08830910538F421912093F100AA
:104F8000615071090196F3CF21E0089709F020E004
:104F90008091E8008E778093E800CECF2111CFCFAB
:104FA0000AC08091EA02882361F0853061F0809127
:104FB000E80083FD0AC08091E80082FFF2CF80E024
:104FC000089582E0089583E0089581E00895209196
:104FD000F1023091F2022617370748F0611571058A
:104FE00039F42091E8002E772093E80001C0B90140
:104FF000FC0120E06115710591F18091EA0288239E
:1050000009F440C0853009F43FC08091E80083FD79
:105010003DC08091E80082FD2FC08091E80080FFB4
:10502000E9CF2091F3008091F20090E0922B61157E
:10503000710559F08830910540F424912093F100D6
:105040003196615071090196F2CF21E0089709F07D
:1050500020E08091E8008E778093E800CBCF21118B
:10506000CCCF0AC08091EA02882361F0853061F0DC
:105070008091E80083FD0AC08091E80082FFF2CFB2
:1050800080E0089582E0089583E0089581E0089526
:10509000982F973068F59093E900981739F0709140
:1050A000EC002091ED005091F00003C0242F762FEA
:1050B00050E021FD02C09F5FECCF3091EB003E7FBE
:1050C0003093EB003091ED003D7F3093ED00309157
:1050D000EB0031603093EB007093EC002093ED0017
:1050E0005093F0002091EE0027FDE5CF80E0089579
:1050F0008F708093E90081E008958091EB0287FF33
:1051000011C08091E80082FD05C08091EA02811102
:10511000F8CF11C08091E8008B770BC08091EA0234
:10512000882349F08091E80080FFF8CF8091E80063
:105130008E778093E80008952091E4003091E50097
:1051400095E64091EC00842F817040FF23C0809150
:10515000E80080FD1DC08091EA02882399F0853027
:1051600099F08091EB0085FD11C04091E4005091D1
:10517000E5002417350729F3915011F09A01E1CF8A
:1051800084E0089582E0089583E0089581E0089521
:1051900080E008954091E80042FFDDCF08950E942D
:1051A0003D290E944529E0EEF0E080818160808306
:1051B000E8EDF0E080818F77808319BCA7EDB0E047
:1051C0008C918E7F8C9380818F7E80831092E902F8
:1051D00008950F931F93CF93DF930E943D290E9460
:1051E0004529C8EDD0E088818F77888388818068E1
:1051F000888388818F7D888319BC1092EA0210927F
:10520000E6021092E8021092E70200EE10E0F801C8
:1052100080818B7F808388818160888342E060E029
:1052200080E00E944828E1EEF0E080818E7F80835C
:10523000E2EEF0E0808181608083808188608083FD
:10524000F80180818E7F8083888180618883DF91EF
:10525000CF911F910F910895E8EDF0E080818F7E4E
:105260008083E7EDF0E080818160808384E082BF0D
:1052700081E08093E9020C94E928E8EDF0E0808178
:105280008E7F80831092E20008951092DA001092CF
:10529000E10008951F920F920FB60F9211242F93E1
:1052A0003F934F935F936F937F938F939F93AF93AE
:1052B000BF93EF93FF938091E10082FF0BC0809139
:1052C000E20082FF07C08091E1008B7F8093E100C4
:1052D0000E940D258091DA0080FF1FC08091D800C8
:1052E00080FF1BC08091DA008E7F8093DA0080916E
:1052F000D90080FF0DC080E189BD82E189BD09B47C
:1053000000FEFDCF81E08093EA020E94E82405C000
:1053100019BC1092EA020E94FA248091E10080FFF9
:1053200019C08091E20080FF15C08091E2008E7F5D
:105330008093E2008091E20080618093E20080919E
:10534000D80080628093D80019BC85E08093EA027F
:105350000E9405258091E10084FF30C08091E20029
:1053600084FF2CC080E189BD82E189BD09B400FEC3
:10537000FDCF8091D8008F7D8093D8008091E1008F
:105380008F7E8093E1008091E2008F7E8093E20027
:105390008091E20081608093E2008091E6028823A0
:1053A00011F084E007C08091E30087FD02C081E036
:1053B00001C083E08093EA020E9409258091E10008
:1053C00083FF29C08091E20083FF25C08091E10026
:1053D000877F8093E10082E08093EA021092E602E8
:1053E0008091E1008E7F8093E1008091E2008E7FCA
:1053F0008093E2008091E20080618093E20042E0CD
:1054000060E080E00E9448288091F00088608093EE
:10541000F0000E940125FF91EF91BF91AF919F9104
:105420008F917F916F915F914F913F912F910F904D
:105430000FBE0F901F9018951F920F920FB60F92EC
:1054400011242F933F934F935F936F937F938F9389
:105450009F93AF93BF93CF93DF93EF93FF93C0914D
:10546000E900CF708091EC00D82FD17080FDD0E89A
:105470001092E9008091F000877F8093F00078948B
:105480000E94602A1092E9008091F0008860809369
:10549000F000CD2BCF70C093E900FF91EF91DF9129
:1054A000CF91BF91AF919F918F917F916F915F91BC
:1054B0004F913F912F910F900FBE0F901F90189515
:1054C0001F93CF93DF93CDB7DEB7AA970FB6F894AB
:1054D000DEBF0FBECDBFEBEEF2E08091F100819315
:1054E00022E0E33FF207C9F70E945D258091E800C2
:1054F00083FF2EC18091EB029091EC02492F50E086
:105500004A30510508F024C1FA01EC58FF4F0C94C1
:10551000412C803821F0823809F01AC108C08091EE
:10552000E7029091E802992389F082600FC0809190
:10553000EF028F70873008F00BC18093E9008091F3
:10554000EB0085FB882780F91092E9009091E80034
:10555000977F9093E8008093F1001092F100D1C002
:10556000282F2D7F09F0F4C0882319F0823061F0D4
:10557000EFC08091ED02813009F0EAC0933009F06C
:1055800080E08093E8022EC08091ED0281112AC054
:105590008091EF028F702FEF280F263008F0D8C0CF
:1055A0008093E9002091EB0020FF1CC0933021F490
:1055B0008091EB00806214C09091EB009061909319
:1055C000EB0021E030E0A90102C0440F551F8A958D
:1055D000E2F74093EA001092EA008091EB008860C5
:1055E0008093EB001092E9008091E800877F809320
:1055F000E8000E947D28ACC08111AAC01091ED0284
:105600001F778091E3008078812B8093E300809165
:10561000E800877F8093E8000E947D288091E80061
:1056200080FFFCCF8091E30080688093E30011113C
:1056300002C082E001C083E08093EA0289C0805802
:10564000823008F085C08091ED029091EE028C3D91
:1056500053E0950779F583E08A838AE289834FB71F
:10566000F894DE01139620E03EE051E2E32FF0E0F3
:1056700050935700E49120FF03C0E295EF703F5F25
:10568000EF708E2F90E0EA3010F0C79601C0C09600
:105690008D939D932F5F243149F74FBF8091E80090
:1056A000877F8093E8006AE270E0CE0101960E9455
:1056B000892716C06091EF027091F002AE014F5F32
:1056C0005F4F0E94D026BC01892B09F441C0909104
:1056D000E800977F9093E80089819A810E94E727EC
:1056E0008091E8008B778093E80032C0803881F5A4
:1056F0008091E800877F8093E8008091E6028093A4
:10570000F1008091E8008E7772CF811121C08091E5
:10571000ED029091EE0299270297D4F48091E8006F
:10572000877F8093E8008091ED028093E6020E94DB
:105730007D288091E602811106C08091E30087FDFB
:1057400002C081E001C084E08093EA020E944E25FD
:105750008091E80083FF0AC08091E800877F8093F2
:10576000E8008091EB0080628093EB00AA960FB670
:10577000F894DEBF0FBECDBFDF91CF911F9108958A
:10578000CF938091EA028823A1F0C091E900CF7005
:105790009091EC00892F817090FD80E8C82B1092C9
:1057A000E9008091E80083FD0E94602ACF70C093D9
:1057B000E900CF910895DB018F939F930E94562CAF
:1057C000BF91AF91A29F800D911DA39F900DB29F9D
:1057D000900D11240895991B79E004C0991F961724
:1057E00008F0961B881F7A95C9F780950895AA1B23
:1057F000BB1B51E107C0AA1FBB1FA617B70710F0BC
:10580000A61BB70B881F991F5A95A9F780959095ED
:10581000BC01CD01089597FB072E16F4009407D024
:1058200077FD09D00E94F72B07FC05D03EF4909538
:1058300081959F4F0895709561957F4F0895A1E2DE
:105840001A2EAA1BBB1BFD010DC0AA1FBB1FEE1FFA
:10585000FF1FA217B307E407F50720F0A21BB30B45
:10586000E40BF50B661F771F881F991F1A9469F7C1
:1058700060957095809590959B01AC01BD01CF011D
:105880000895EE0FFF1F0590F491E02D0994A29F5B
:10589000B001B39FC001A39F700D811D1124911D04
:1058A000B29F700D811D1124911D08950E94472CF7
:1058B000A59F900DB49F900DA49F800D911D112464
:1058C0000895F999FECF92BD81BDF89A992780B5C8
:1058D0000895A8E1B0E042E050E00C94952C262F0A
:1058E000F999FECF92BD81BDF89A019700B40216D6
:1058F00039F01FBA20BD0FB6F894FA9AF99A0FBE84
:1059000008950396272F0E94702C0E946F2C252F3C
:105910000E94702C242F0C94702C0196272F0E942B
:10592000702C0C946F2CDC01CB01FC01F999FECF9B
:1059300006C0F2BDE1BDF89A319600B40D92415017
:0A5940005040B8F70895F894FFCF27
:10594A002808643C07148F024A24A7248824842444
:10595A00802401E200E900EA00B500B600B700CDF4
:10596A00008301CC008A01920194012102230224BE
:10597A00022502260227022A02B300B4006F007031
:10598A0000818283E200E900EA00B500B600B700B0
:10599A00CD008301CC008A019201940121022302E5
:1059AA0024022502260227022A02B300B4006F004D
:1059BA00700081828340B622C8061206F00595055A
:0459CA00AE05C7055A
:00000001FF
